:1000000007C1000033C1000031C100002FC1000052
:100010002DC100002BC1000029C1000027C1000034
:1000200025C1000023C1000021C100001FC1000044
:100030001DC100001BC1000019C1000017C1000054
:1000400015C1000013C1000011C100000FC1000064
:100050000DC100000BC1000009C1000054C3000025
:1000600005C1000003C1000001C10000FFC0000085
:10007000FDC00000FBC00000F9C00000F7C0000098
:10008000F5C00000F3C00000F1C00000EFC00000A8
:10009000EDC00000EBC00000E9C00000E7C00000B8
:1000A000E5C00000E3C00000E1C00000DFC00000C8
:1000B000DDC00000DBC00000D9C00000D7C00000D8
:1000C000D5C00000D3C00000D1C00000CFC00000E8
:1000D000CDC00000CBC00000C9C00000C7C00000F8
:1000E000C5C000008401870176017A017E01BE014E
:1000F0008B018F01950199019D01A301A701AB011E
:10010000BE01B101B501B90100000A0B02090C0DD5
:100110000E080703040100000000000000000000BA
:1001200000000000000000000000000000000000CF
:10013000000000001211100000000000000000008C
:1001400000000000000000000000000000000000AF
:100150002200250028002B002E003100340002016F
:100160000000050108010B01000021002400270008
:100170002A002D00300033000101000004010701B6
:100180000A0105050505070508080808020202021C
:100190000A0A080804040404010101010101010123
:1001A0000303030303030303040707070C0C0C0CEE
:1001B0000C0C0C0C020202020606060606060606D7
:1001C0000B0B0B0B0B0B0B0B010210202008081064
:1001D00020401020408002010201080402010102B7
:1001E0000408102040808040201008040201800490
:1001F00002018040201008040201080402010102EB
:10020000040810204080010204081020408070047F
:1002100011241FBECFEFD1E2DEBFCDBF00E00CBF87
:1002200012E0A0E0B2E0E8E3F9E000E00BBF02C0BA
:1002300007900D92AE31B107D9F722E0AEE1B2E0FE
:1002400001C01D92AF33B207E1F711E0C8E0D1E081
:1002500000E005C021970109802FFE015FD3C73060
:10026000D10780E00807B1F798D264C3C9CE90E007
:10027000FC01E853FE4F2491FC01EE57FE4F8491A0
:10028000882399F090E0880F991FFC01E859FE4FF0
:10029000A591B491FC01E25BFE4F859194918FB7DB
:1002A000F894EC91E22BEC938FBF0895362F90E0F9
:1002B000FC01E85FFE4F4491FC01E853FE4F24919E
:1002C000FC01EE57FE4F9491992309F46BC044232F
:1002D00009F454C050E0FA013197E231F10508F019
:1002E0004DC08827EE58FF4F8F4F18C38091800074
:1002F0008F7707C0809180008F7D03C08091800040
:10030000877F809380003AC084B58F7702C084B520
:100310008F7D84BD33C08091B0008F7703C0809102
:10032000B0008F7D8093B00029C0809190008F77BE
:1003300007C0809190008F7D03C080919000877FDF
:10034000809390001BC08091A0008F7707C08091A0
:10035000A0008F7D03C08091A000877F8093A000C4
:100360000DC0809120018F7707C0809120018F7D83
:1003700003C080912001877F80932001E92FF0E066
:10038000EE0FFF1FE25BFE4FA591B4919FB7F8946B
:10039000311104C08C912095282302C0EC912E2BA2
:1003A0002C939FBF08953FB7F894809123029091BA
:1003B0002402A0912502B091260226B5A89B05C073
:1003C0002F3F19F00196A11DB11D3FBFBA2FA92FD4
:1003D000982F8827820F911DA11DB11DBC01CD0151
:1003E00042E0660F771F881F991F4A95D1F708953D
:1003F0008F929F92AF92BF92CF92DF92EF92FF9235
:10040000D2DF4B015C0188EEC82E83E0D82EE12CB0
:10041000F12CC9DFDC01CB0188199909AA09BB09B4
:10042000883E9340A105B105A0F321E0C21AD1088E
:10043000E108F10888EE880E83E0981EA11CB11C2B
:10044000C114D104E104F10421F7FF90EF90DF9093
:10045000CF90BF90AF909F908F900895CF92DF92F2
:10046000EF92FF920F931F93CF93DF936C017A016A
:100470008B01C0E0D0E0CE15DF0581F0D8016D9191
:100480008D01D601ED91FC910190F081E02DC60126
:100490001995892B11F02196EECF7E01C701DF91CE
:1004A000CF911F910F91FF90EF90DF90CF90089523
:1004B000CF93DF93EC0160E08E81F8DE61E08E8106
:1004C000F5DE60E08E81F2DE8BE891E00197F1F7D6
:1004D000DF91CF910895CF92DF92EF92FF920F9329
:1004E0001F93CF93DF936C017C0187E0E80EF11C32
:1004F000C0E0D0E0062F10E0B8010C2E02C07595C8
:1005000067950A94E2F76170F70181917F01CEDE71
:100510002196C430D10581F7C601DF91CF911F919B
:100520000F91FF90EF90DF90CF90C2CFCF92DF92EC
:10053000EF92FF920F931F93CF93DF93EC01F62E70
:10054000642F8C81B3DE8D818F3F11F060E0AEDED1
:100550008F850F2D10E084FF23C06E0187E0C80E49
:10056000D11CE12CF12CB8010E2C02C075956795B9
:100570000A94E2F76170F60181916F0197DEFFEF57
:10058000EF1AFF0A88E0E816F10469F7CE01DF915F
:10059000CF911F910F91FF90EF90DF90CF9088CF78
:1005A000B80184E0759567958A95E1F7CE0193DFF0
:1005B0006F2DCE01DF91CF911F910F91FF90EF90A2
:1005C000DF90CF9088CF40E0682F87E292E0AECFF7
:1005D000CF93DF93623028F0909136029860909329
:1005E000360260933A0210923B0290E490933C02F0
:1005F00080933D0290E0805C9F4F80933E0280910B
:100600002B0235DE80912C028F3F09F030DE809185
:100610002D022DDEC7E2D2E09E01275232408091AA
:10062000360284FD03C084E090E002C088E090E0E0
:100630002196281739071CF48E8119DEEDCF8BE344
:100640009DE00197F1F760E080912B022FDE60E0E2
:1006500080912D022BDE80912C028F3F11F060E003
:1006600025DE8091360284FD1CC063E087E292E0C3
:1006700032DFCBE4D6E4CE010197F1F763E087E205
:1006800092E029DF2197F1F763E087E292E023DF30
:1006900083E592E00197F1F762E087E292E01BDFE9
:1006A00012C0806290DF8BE496E40197F1F78091AD
:1006B0003602806288DF83E592E00197F1F780914E
:1006C0003602806280DF8091360280627CDF84E0C7
:1006D000809337028CE077DF81E075DF8BE39FE169
:1006E0000197F1F782E08093380286E0DF91CF91A5
:1006F0006ACF41E01BDF81E090E00895089580E03B
:1007000090E0089513D11F920F920FB60F9211240B
:100710002F933F938F939F93AF93BF9380911F022B
:1007200090912002A0912102B091220230911E02EC
:1007300023E0230F2D3720F40196A11DB11D05C024
:1007400026E8230F0296A11DB11D20931E0280935F
:100750001F0290932002A0932102B0932202809165
:10076000230290912402A0912502B09126020196C5
:10077000A11DB11D8093230290932402A093250212
:10078000B0932602BF91AF919F918F913F912F918E
:100790000F900FBE0F901F901895789484B58260CB
:1007A00084BD84B5816084BD85B5826085BD85B515
:1007B000816085BD80916E00816080936E00109293
:1007C000810080918100826080938100809181000E
:1007D000816080938100809180008160809380009F
:1007E0008091B10084608093B1008091B0008160FD
:1007F0008093B000809191008260809391008091FD
:10080000910081608093910080919000816080933D
:1008100090008091A10082608093A1008091A1004E
:1008200081608093A1008091A00081608093A000EE
:10083000809121018260809321018091210181605A
:10084000809321018091200181608093200180911B
:100850007A00846080937A0080917A00826080932D
:100860007A0080917A00816080937A0080917A008A
:10087000806880937A001092C10064E084E1A8DE71
:10088000C0E0D0E0E1E080913A028111E0E0E19542
:10089000F0E0E95DFD4F8489806895DE45E050E039
:1008A0006CE072E087E292E0D9DDA2DDE0913A02ED
:1008B000E23010F4E15001C0E1E0F0E0E95DFD4F0D
:1008C0008489806880DE4BE050E062E172E087E27C
:1008D00092E0C4DD8DDD2097A9F20E940000D2CF06
:1008E000E7E2F2E01382128284E092E09183808357
:1008F00087E084838FEF858386E0868385E0878326
:1009000084E0808783E0818782E082871386148673
:1009100015861686178661E080E15ACEEE0FFF1F1E
:10092000881F8BBF0790F691E02D199481E090E02D
:08093000F89400C0F894FFCF19
:100938000000000079032E027F037E034769736578
:0E0948006C0043617270696E746569726F00B5
:00000001FF
