:02000000E829ED
:0E000600213083120313FD00FD0B07280800B4
:06001400000000000800DE
:10001A000F3083120313FC004730FD00FD0B132839
:0A002A00FC0B132800000000080082
:1000340083120313D51B2028861121288615551BEE
:100044002528061126280615D51A2A2886102B28B5
:100054008614551A2F280610302806142B18342815
:1000640006163528061286160A208612D5193C284B
:1000740086113D2886155519412806114228061572
:10008400D518462886104728861455184B2806107C
:100094004C2806142B1850280616512806128616CA
:1000A4000A2086122B1C58280D20592803200800EA
:1000B400831203132B105008D5001A202B140800A8
:1000C400063083120313FD00FD0B662800000800B0
:0E00D4008312031322088A002108820008000C
:1000E20083120313D001D201D3011030D4000430A3
:1000F20053020318A228F03088008030F000700804
:10010200083E84005409F000700880000A200A208A
:100112000F300805F0007008D100700803199C2800
:100122005208D000510803199A28D10CD113D00AD1
:1001320093280430D300D40D54100430D207D30ACC
:0801420078285008F0000800C5
:10014A0083120313F801F9011030FC00710DF80D48
:10015A00F90D7408F8027508031C750FF9020318E3
:10016A00BD287408F80775080318750FF9070310F6
:0A017A00F00DF10DFC0BAB2808009E
:1001840083120313CE0105304E020318D0284E0803
:100194004D07840020308000CE0AC5284E084D0744
:1001A40084008001CE034E084D07CF000A30F400CE
:1001B400F5014B08F0004C08F100A5207808F00088
:1001C4007908F1003030F0074F088400700880008F
:1001D4000A30F400F5014B08F0004C08F100A520AA
:1001E4007008CB007108CC0000307106031DFC2898
:1001F40000307006031DFF280129CE03D52808000E
:100204001429803083120313CB002729C030CB007C
:1002140027299430CB002729D430CB0027298030DC
:10022400CB002729831203134B08013A031903292E
:100234004B08023A031908294B08033A03190B29FE
:100244004B08043A03190E2911294C03F0004B08FA
:10025400F0077008CB002B147008D5001A202B105F
:0A0264004D08D5001A202B140800E5
:10026E006A208A110A128000840AA10A0319A20ABE
:08027E00F003031D37290800FD
:100286005529803083120313CB006829C030CB0078
:1002960068299430CB006829D430CB006829803097
:1002A600CB006829831203134B08013A031944292A
:1002B6004B08023A031949294B08033A03194C29FA
:1002C6004B08043A03194F2952294C03F0004B08F6
:1002D600F0077008CB007008D5001A202B10CE014D
:1002E6004E084D0784000008031981294E084D0762
:1002F60084000008D0005A20CE0A73292B14080067
:1003060071207008CB000F300805F00003198D2905
:0A031600622086294B08F000080061
:100320008316031386120612061086100611861114
:1003300083128612061286110611861006100D20F1
:100340000D200D208614061486160A2086120D2014
:1003500086160A2086120D2086160A2086120D2087
:10036000061086160A2086120D2086160A2086128E
:100370008610861586160A2086120D208611061410
:1003800086160A208612061086160A2086120D206E
:1003900086160A208612061486160A2086120D205A
:1003A000061086160A20861286150615861406146F
:0C03B00086160A2086120D202B1408006F
:1003BC00803083120313F0007008083E8400FF3075
:0403CC0080000800A5
:1003D00083120313A001DE2190210130D5001A20E1
:1003E0000C30D5001A200130A3000030A400B90160
:1003F000BA0180303A06F00080307002031D022AF4
:10040000043039020318082BB80183217008B800A2
:1004100070080319052A3C2A3130B8007C2A323092
:10042000B8007C2A3330B8007C2A4130B8007C2ADE
:100430003430B8007C2A3530B8007C2A3630B80019
:100440007C2A4230B8007C2A3730B8007C2A383009
:10045000B8007C2A3930B8007C2A4330B8007C2AA6
:100460002A30B8007C2A3030B8007C2A2330B8000B
:100470007C2A4430B8007C2A3808013A03190C2A37
:100480003808023A03190F2A3808033A0319122AC6
:100490003808043A0319152A3808053A0319182AA6
:1004A0003808063A03191B2A3808073A03191E2A86
:1004B0003808083A0319212A3808093A0319242A66
:1004C00038080A3A0319272A38080B3A03192A2A46
:1004D00038080C3A03192D2A38080D3A0319302A26
:1004E00038080E3A0319332A38080F3A0319362A06
:1004F0003808103A0319392A0130CB002308CC0000
:100500003808CD000221A30A0319A40AB62A013033
:10051000B800F62A0230B800F62A0330B800F62AEE
:100520000A30B800F62A0430B800F62A0530B800C0
:10053000F62A0630B800F62A0B30B800F62A073043
:10054000B800F62A0830B800F62A0930B800F62AB2
:100550000C30B800F62A2130B800F62AB801F62A85
:100560002230B800F62A0D30B800F62A3808313AA1
:100570000319872A3808323A03198A2A3808333A85
:1005800003198D2A3808413A0319902A3808343A59
:100590000319932A3808353A0319962A3808363A47
:1005A0000319992A3808423A03199C2A3808373A1D
:1005B00003199F2A3808383A0319A22A3808393A09
:1005C0000319A52A3808433A0319A82A38082A3AF1
:1005D0000319AB2A3808303A0319AE2A3808233AEF
:1005E0000319B02A3808443A0319B32A3908F0002D
:1005F0003A08F100F00DF10D701070083B3E8400D8
:1006000038088000840A8001B90A0319BA0AF92956
:100610000130C9000030CA00C701C8010330B90069
:100620000030BA004108B6004208B7000430F000BC
:100630003F08F6004008F70070080319242BF60D58
:10064000F70D7610FF3E1D2B7608A7007708A8004F
:100650003D08F500F4017408A5007508A6000C30EB
:10066000F0003B08F2003C08F300700803193D2B32
:10067000F20DF30D7210FF3E362B7208A9007308BD
:10068000AA0076084107F00042080318013E7707E8
:10069000F1007408F00775080318013EF1077208AD
:1006A000F00773080318013EF1077008C7007108CE
:1006B000C8007008CB007108CC002C30CD00C220DF
:1006C0000230CB000130CC002C30CD004321672B11
:02400E004A2F37
:00000001FF
