:020000000129D4
:10000600103083120313FD00FD0B072800000800C3
:10001600083083120313FC002330FD00FD0B11286A
:06002600FC0B112808008C
:04002C0000000800C8
:1000300083120313BA1B1E2886111F2886153A1B2C
:100040002328061124280615BA1A282886102928DC
:1000500086143A1A2D2806102E2806143418322831
:10006000061633280612861616208612BA193A2862
:1000700086113B2886153A193F2806114028061597
:10008000BA1844288610452886143A1849280610BC
:100090004A28061434184E2806164F2806128616CB
:1000A00016208612341C56280B20572803200800DF
:0E00B0008312031333088A003208820008000E
:1000BE008312031334103908BA00182034140800C0
:1000CE008316031386120612061086100611861169
:1000DE0083128612061286110611861006100B2048
:1000EE000B200B20861406148616162086120B2063
:1000FE008616162086120B208616162086120B20C8
:10010E0006108616162086120B20861616208612CC
:10011E00861086158616162086120B20861106145A
:10012E0086161620861206108616162086120B20AC
:10013E0086161620861206148616162086120B2098
:10014E0006108616162086128615061586140614B7
:0C015E008616162086120B2034140800B0
:10016A00C728803083120313B500DA28C030B500DF
:10017A00DA289430B500DA28D430B500DA2880308D
:10018A00B500DA28831203133508013A0319B62891
:10019A003508023A0319BB283508033A0319BE2861
:1001AA003508043A0319C128C4283603F000350873
:1001BA00F0077008B5007008BA0018203410B801AA
:1001CA0038083707840000080319F3283808370766
:1001DA0084000008B9005F20B80AE5283414080032
:1001EA0058208A110A128000840AB20A0319B30A33
:0801FA00F003031DF5280800C5
:10020200473083120313A0006930A1007330A200AB
:100212006530A3006C30A400A5014330A600613014
:10022200A7007230A8007030A9006930AA006E30B1
:10023200AB007430AC006530AD006930AE00723096
:10024200AF006F30B000B10167200130BA00182052
:100252000C30BA0018200130B5000230B600203050
:10026200B700B5200230B5000230B6002630B70024
:04027200B5203A2950
:02400E004A2F37
:00000001FF
