:0200000059287D
:06000600000000000800EC
:10000C00063083120313FD00FD0B0A2800000800C4
:10001C0083120313A401A601A7011030A800043019
:10002C00270203183F28F03088008030F000700859
:10003C00083E84002809F00070088000032003208B
:10004C000F300805F0007008A50070080319392856
:10005C002608A400250803193728A50CA513A40A03
:10006C0030280430A700A80D28100430A607A70AD2
:08007C0015282408F00008001B
:100084000E207008A3000F300805F00003194C2857
:0A009400062045282308F0000800AC
:10009E00803083120313F0007008083E8400FF3096
:0400AE0080000800C6
:1000B2008316031387014F20A20142207008A20079
:1000C200700803195E2894280130A200D428023057
:1000D200A200D4280330A200D4280A30A200D428D7
:1000E2000430A200D4280530A200D4280630A20091
:1000F200D4280B30A200D4280730A200D42808301C
:10010200A200D4280930A200D4280C30A200D4289E
:100112002130A200D428A201D4282230A200D4285F
:100122000D30A200D4282208013A031965282208BA
:10013200023A031968282208033A03196B28220895
:10014200043A03196E282208053A03197128220875
:10015200063A031974282208073A03197728220855
:10016200083A03197A282208093A03197D28220835
:100172000A3A0319802822080B3A03198328220815
:100182000C3A0319862822080D3A031989282208F5
:100192000E3A03198C2822080F3A03198E282208D6
:0E01A200103A03199128220887005D28D728FB
:02400E004A2F37
:00000001FF
