:02000000182CBA
:0E000600213083120313FD00FD0B07280800B4
:100014000F3083120313FC004730FD00FD0B102842
:0A002400FC0B10280000000008008B
:06002E00000000000800C4
:0E0034008312031340088A003F088200080070
:1000420083120313FB01FA01F901F801A001730DF8
:10005200F80D7408F8027508031C750FF90276088A
:10006200031C760FFA027708031C770FFB020001CC
:10007200031C0130A002F30D0730FC00730DF80DD4
:10008200F90DFA0DFB0DA00D7408731C5A28F80225
:100092007508031C750FF9027608031C760FFA0225
:1000A2007708031C770FFB020001031C0130A0023A
:1000B2006B28F80775080318750FF90776080318F7
:1000C200760FFA0777080318770FFB07000103186A
:1000D2000130A007F30DFC0B3F28720DF80DF90D4E
:1000E200FA0DFB0DA00D7408731C8928F80275081F
:1000F200031C750FF9027608031C760FFA027708C3
:10010200031C770FFB020001031C0130A0029A2896
:10011200F80775080318750FF90776080318760FA4
:10012200FA0777080318770FFB070001031801305D
:10013200A007F20D0730FC00720DF80DF90DFA0D53
:10014200FB0DA00D7408721CB828F8027508031C78
:10015200750FF9027608031C760FFA027708031C62
:10016200770FFB020001031C0130A002C928F80727
:1001720075080318750FF90776080318760FFA0742
:1001820077080318770FFB07000103180130A00757
:10019200F20DFC0B9D28710DF80DF90DFA0DFB0DFA
:1001A200A00D7408721CE728F8027508031C750F6D
:1001B200F9027608031C760FFA027708031C770F00
:1001C200FB020001031C0130A002F828F8077508A1
:1001D2000318750FF90776080318760FFA077708E0
:1001E2000318770FFB07000103180130A007F10D78
:1001F2000730FC00710DF80DF90DFA0DFB0DA00D85
:100202007408711C1629F8027508031C750FF9028F
:100212007608031C760FFA027708031C770FFB029D
:100222000001031C0130A0022729F80775080318F2
:10023200750FF90776080318760FFA07770803187F
:10024200770FFB07000103180130A007F10DFC0B2B
:10025200FB28700DF80DF90DFA0DFB0DA00D7408B9
:10026200711C4529F8027508031C750FF9027608FE
:10027200031C760FFA027708031C770FFB020001BA
:10028200031C0130A0025629F80775080318750FE0
:10029200F90776080318760FFA0777080318770F1D
:1002A200FB07000103180130A007F00D0730FC0026
:1002B200700DF80DF90DFA0DFB0DA00D7408701CF0
:1002C2007429F8027508031C750FF9027608031CDD
:1002D200760FFA027708031C770FFB020001031C5A
:1002E2000130A0028529F80775080318750FF90770
:1002F20076080318760FFA0777080318770FFB07BB
:10030200000103180130A007F00DFC0B59297018E9
:1003120098297408F80775080318750FF907760805
:100322000318760FFA0777080318770FFB07080000
:1003320083120313411DF429C11CAF29411CA429B6
:100342002D30F300A6292B30F300630884007308D4
:100352008000E30AC30A0319C40ADF29411CBA292F
:100362006308840020308000E30AC30A0319C40A28
:10037200DF29C0304105F10042080839F200720855
:10038200083A031DC62980307106031DDF29630860
:10039200840030308000E30AC30A0319C40AC11E74
:1003A200D5295830F400D7297830F4006308840046
:1003B20074088000E30AC30A0319C40A49084A04FC
:1003C2000319F3296308840030308000E30AC30A6A
:1003D2000319C40A0130C902031CCA0349084A04AA
:1003E200031DE329622A49084A0403190A2AC1198A
:1003F2000A2A6308840020308000E30AC30A031932
:10040200C40A0130C902031CCA0349084A04031D75
:10041200FA29C11C1C2A411C112A2D30F500132A6D
:100422002B30F5006308840075088000E30AC30AD4
:100432000319C40A262A411C262A63088400203094
:100442008000E30AC30A0319C40AC0304105F1005F
:1004520042080839F2007208083A031D322A403075
:100462007106031D3D2A6308840030308000E30AD0
:10047200C30A0319C40A622AC0304105F1004208C6
:100482000839F2007208083A031D492A80307106C1
:10049200031D622A6308840030308000E30AC30A25
:1004A2000319C40AC11E582A5830F6005A2A783055
:1004B200F6006308840076088000E30AC30A031981
:1004C200C40A8030F000803048067002031D6B2A97
:1004D200470846020318762A6308840030308000F9
:1004E200E30AC30A0319C40A622A6308F000080077
:1004F200952A83120313C115E30A0319E40AD42AC5
:100502004114E30A0319E40AD42AC114E30A0319C1
:10051200E40AD42AC215E30A0319E40AD42A4115CB
:10052200E30A0319E40AD42A831203136308BF00FF
:100532006408C0001A208A110A12F10071082D3ACB
:1005420003197A2A6308BF006408C0001A208A11BE
:100552000A12F1007108203A0319812A6308BF00C8
:100562006408C0001A208A110A12F10071082B3A9D
:100572000319862A6308BF006408C0001A208A1182
:100582000A12F1007108233A03198B2A6308BF008B
:100592006408C0001A208A110A12F1007108303A68
:1005A2000319902AD52A792AC11CD82A4110C11DC3
:0E05B200DB2A41116308F0006408F100080024
:1005C00083120313E31BE62A8711E72A8715631BAF
:1005D000EB2A0711EC2A0715E31AF02A8710F12AF3
:1005E0008714631AF52A0710F62A07144518FA2A01
:1005F0000716FB2A0712871617208712E319022B0A
:100600008711032B87156319072B0711082B071573
:10061000E3180C2B87100D2B87146318112B071070
:10062000122B07144518162B0716172B07128716BF
:1006300017208712451C1E2B0A201F2B03200800A1
:1006400083120313FB01FA01F9018030F800F10C69
:10065000F00C031C342B7408F90775080318750F88
:10066000FA070318FB0A0310F01F3C2B7408FA0763
:1006700075080318750FFB07FB0CFA0CF90CF80C46
:10068000031C272B7B08F3007A08F2007908F1009D
:060690007808F0000800EC
:10069600831203136308393C031C582B3030630262
:0E06A600031C582B0130F000592BF001080006
:1006B4008312031345105A08E300E022451408008E
:1006C4008316031387120712071087100711871167
:1006D40083128712071287110711871007100A2047
:1006E4000A200A20871407148716172087120A2065
:1006F4008716172087120A208716172087120A20C8
:1007040007108716172087120A20871617208712CA
:10071400871087158716172087120A208711071458
:1007240087161720871207108716172087120A20AA
:1007340087161720871207148716172087120A2096
:1007440007108716172087128715071587140714B3
:0C0754008716172087120A2045140800A1
:10076000C22B803083120313D200D52BC030D200AD
:10077000D52B9430D200D52BD430D200D52B80305D
:10078000D200D52B831203135208013A0319B12B5F
:100790005208023A0319B62B5208033A0319B92B2F
:1007A0005208043A0319BC2BBF2B5303F000520824
:1007B000F0077008D2007008E300E0224510D50170
:1007C00055085407840000080319EE2B55085407F8
:1007D00084000008DA005A23D50AE02B45140800EB
:1007E000553083120313D9005208DA005308DB0096
:1007F0005408DC005930DD008A1500208A11700889
:10080000D7007108D800700852078400800157088B
:08081000F0005808F100080097
:100818001A208A110A128000840ABF0A0319C00A22
:08082800F003031D0C2C080075
:10083000202562230C30E300E0228501013083167D
:10084000850081168115831281010B30FB00263053
:10085000FC005D30FD00FD0B2B2CFC0B2B2CFB0B4F
:100860002B2C000000000108CB00CC014D30D20041
:100870001D30D3000530D4004B08D5004C08D600FD
:10088000F0230108163A031D502C0130E300E0224A
:100890000130D2000130D3003130D400B0235F2CBE
:1008A0000130D2000130D3002630D400B023013013
:1008B000D2000C30D3004D30D400B023252C5F2C57
:100A4000213084001E3083120313F000DD30BF001C
:080A50000430C0000C24080072
:1010000083120313C301C401C101C2015B08F000D4
:101010005C08F100DB0A0319DC0A7008BF007108E4
:10102000C0008A111A208A150A12F0007008C60042
:1010300070080319E72D4608253A031928285A088D
:10104000840046088000DA0AC30A0319C40A062885
:10105000C901CA01C101C2015B08E3005C08E400E8
:101060008A1179228A157008DB007108DC0070088B
:10107000BF007108C0008A111A208A150A12F000F8
:101080000030F1007008E3008A114B238A157008C4
:1010900003198228C901CA014908F0004A08F10071
:1010A0000A30F4000030F5008A1120238A155B080D
:1010B000BF005C08C0008A111A208A150A12F200CB
:1010C00072087007C90071080318013ECA00303069
:1010D000C902031CCA03DB0A0319DC0A5B08BF0050
:1010E0005C08C0008A111A208A150A12F00000302C
:1010F000F1007008E3008A114B238A157008031D64
:101100004C28A6285B08BF005C08C0008A111A2082
:101110008A150A12F10071082A3A031DA6285D08F3
:1011200084000008F000700884000008C900840AE8
:101130000008CA005D08840002300007F0005D0866
:10114000840070088000DB0A0319DC0A5B08BF001A
:101150005C08C0008A111A208A150A12F100710871
:101160002E3A031D1429DB0A0319DC0A5B08BF00B1
:101170005C08C0008A111A208A150A12F100710851
:101180002A3A031DDB285D0884000008F00070087F
:1011900084000008C700840A0008C8005D088400B5
:1011A00002300007F0005D08840070088000DB0A50
:1011B0000319DC0A1329C701C8015B08BF005C08DA
:1011C000C0008A111A208A150A12F0000030F100BE
:1011D0007008E3008A114B238A157008031913293C
:1011E0004708F0004808F1000A30F4000030F5002C
:1011F0008A1120238A155B08BF005C08C0008A1191
:101200001A208A150A12F20072087007C7007108C6
:101210000318013EC8003030C702031CC803DB0AB4
:101220000319DC0ADD281629C701C8015B08F00094
:101230005C08F100DB0A0319DC0A7008BF007108C2
:10124000C0008A111A208A150A12C600F129430823
:10125000F0004408F100EB2D411616294117222A0F
:10126000222AC116C117222A5D0884000008F00056
:10127000700884000008DE005D088400000AF000A9
:101280005D088400700880005E08003A031D4A294A
:101290002130DE00DF01E0015F085E078400000806
:1012A00003195F295F08013EF00000300318013E7A
:1012B0006007F1007008DF007108E0004C29470862
:1012C000480403196F2960084802031D69295F0853
:1012D000470203186F294708DF004808E0004A0862
:1012E0006002031D752949085F0203187E295F0803
:1012F000C902031CCA036008CA028029C901CA01C5
:10130000C11997294908F0004A08F1000130C902C3
:10131000031CCA0370087104031997295A08840032
:1013200020308000DA0AC30A0319C40A82295F0840
:10133000F2006008F30001305F02F0000030031C8F
:10134000013E6002F1007008DF007108E0007208E1
:1013500073040319BC295E0884000008F0005A08D1
:10136000840070088000DA0A5E0AF0007008DE006F
:10137000C30A0319C40A9729C11DD3294908F000DB
:101380004A08F1000130C902031CCA037008710445
:101390000319D3295A08840020308000DA0AC30ACE
:1013A0000319C40ABE2906285D0884000008F0005D
:1013B000700884000008C6005D0884000230000741
:1013C000F0005D088400700880004630DE000130C7
:1013D000DF000030E0005F29C030C1040030C204EB
:1013E000222A4608003A0319272946086C3A0319AD
:1013F0002C2946084C3A03192C2946086F3A031940
:101400002E294608643A031930294608693A031917
:1014100030294608703A031931294608583A031909
:1014200031294608783A031932294608733A0319D4
:1014300034294608633A0319D4294608753A031932
:10144000EC29E529C0304105F1004208F2000030E6
:10145000F20500307206031D2F2A00307106031DAD
:10146000A12A411E4E2A5D0884000008F000700881
:1014700084000008DE00840A0008DF00840A0008F7
:10148000E000840A0008E1005D08840004300007E1
:10149000F0005D088400700880006F2A5D088400F9
:1014A0000008F000700884000008F000840A0008BA
:1014B000F1000030F11BFF30F200F3007008DE0095
:1014C0007108DF007208E0007308E1005D08840025
:1014D00002300007F0005D08840070088000803052
:1014E0006106F00080307002031D802A0030600227
:1014F000031D802A00305F02031D802A00305E0237
:101500000318A02A0330C1040030C204F001F10125
:10151000F201F3015E08F0025F08031C5F0FF102A5
:101520006008031C600FF2026108031C610FF302E4
:101530007008DE007108DF007208E0007308E10047
:10154000D42A411EBE2A5D0884000008F0007008FD
:1015500084000008DE00840A0008DF00840A000816
:10156000E000840A0008E1005D0884000430000700
:10157000F0005D08840070088000D42A5D088400B3
:101580000008F000700884000008DE00840A0008EB
:10159000DF00E001E1015D08840002300007F00097
:1015A0005D0884007008800000304806031DDA2AB8
:1015B00000304706031DF02A0030F0006106031DCD
:1015C000EB2A70086006031DEB2A70085F06031DF6
:1015D000EB2A5E08003A031DF02AC70A0319C80A5D
:1015E000C0304105F0007008F600D42B0130C60071
:1015F00046080A3A03193F2B4608F000F101F00DA6
:10160000F10D7010F00DF10D70109530F0070430F1
:101610000318013EF1077008BF007108C0008A116D
:101620001A208A150A12F200BF0A0319C00A8A1189
:101630001A208A150A12F300BF0A0319C00A8A1178
:101640001A208A150A12F400BF0A0319C00A8A1167
:101650001A208A150A12F50075086102031D3A2B3B
:1016600074086002031D3A2B73085F02031D3A2BB6
:1016700072085E0203183D2B3F2BC60AF82AE42BA2
:101680000130C6004608083A0319892B4608F000C5
:10169000F101F00DF10D7010F00DF10D7010BD3075
:1016A000F00704300318013EF1077008BF0071080D
:1016B000C0008A111A208A150A12F200BF0A031903
:1016C000C00A8A111A208A150A12F300BF0A0319E8
:1016D000C00A8A111A208A150A12F400BF0A0319D7
:1016E000C00A8A111A208A150A12F50075086102CB
:1016F000031D842B74086002031D842B73085F0292
:10170000031D842B72085E020318872B892BC60ADF
:10171000422BE42B0130C60046080C3A0319D32BA8
:101720004608F000F101F00DF10D7010F00DF10D13
:1017300070106530F00704300318013EF10770089F
:10174000BF007108C0008A111A208A150A12F2001F
:10175000BF0A0319C00A8A111A208A150A12F30057
:10176000BF0A0319C00A8A111A208A150A12F40046
:10177000BF0A0319C00A8A111A208A150A12F50035
:1017800075086102031DCE2B74086002031DCE2B69
:1017900073085F02031DCE2B72085E020318D12B63
:1017A000D32BC60A8C2BE42B7608003A0319F62AB1
:1017B0007608C03A0319F62A7608803A0319402BB6
:1017C0007608403A03198A2B8030F00080304806B2
:1017D0007002031DED2B470846020318F22B470841
:1017E000C600002C80304806F00080307002031DD7
:1017F000FB2B460847020318002C4608C700C80107
:1018000049084A040319132C03304105F00042082B
:10181000F1000030F105700871040319132C013038
:10182000C902031CCA0380304806F00080304A0613
:101830007002031D1D2C490847020318262C470877
:10184000C902031CCA034808CA02282CC901CA01DC
:10185000C4304105F10042080839F2007208083A24
:10186000031D342C40307106031D3F2C49084A04E7
:1018700003193E2C0130C902031CCA035F2CC0307F
:101880004105F10042080839F2007208083A031DC8
:101890004B2C80307106031D5F2C8030F0008030AF
:1018A0004A067002031D562C4908023C03185D2CA1
:1018B0000230C902031CCA035F2CC901CA015A08BD
:1018C000E3008A1199218A157008DA004708F000B0
:1018D0004808F1000130C702031CC80370087104F6
:1018E0000319C92DC0304105F0007008E200B02D89
:1018F0004708F0004808F100F00DF10D7010F00DF0
:10190000F10D70109530F00704300318013EF10717
:101910007008BF007108C0008A111A208A150A12C7
:10192000F400BF0A0319C00A8A111A208A150A1284
:10193000F500BF0A0319C00A8A111A208A150A1273
:10194000F600BF0A0319C00A8A111A208A150A1262
:10195000F7005E08F0005F08F1006008F20061081F
:10196000F3008A1121208A150A30F400F501F601EE
:10197000F7018A1121208A157808F0007908F10012
:101980007A08F2007B08F30030307007C600C02DE3
:10199000C11E1C2D4708F0004808F100F00DF10DA4
:1019A0007010F00DF10D7010BD30F0070430031809
:1019B000013EF1077008BF007108C0008A111A20AB
:1019C0008A150A12F400BF0A0319C00A8A111A20E4
:1019D0008A150A12F500BF0A0319C00A8A111A20D3
:1019E0008A150A12F600BF0A0319C00A8A111A20C2
:1019F0008A150A12F7005E08F0005F08F10060081F
:101A0000F2006108F3008A1121208A150F30F005D9
:101A10000030F105F205F3050C30F007053003182E
:101A2000013EF1077008BF007108C0008A111A203A
:101A30008A150A12C6006D2D4708F0004808F1000B
:101A4000F00DF10D7010F00DF10D7010BD30F007BC
:101A500004300318013EF1077008BF007108C00090
:101A60008A111A208A150A12F400BF0A0319C00A43
:101A70008A111A208A150A12F500BF0A0319C00A32
:101A80008A111A208A150A12F600BF0A0319C00A21
:101A90008A111A208A150A12F7005E08F0005F0802
:101AA000F1006008F2006108F3008A1121208A1514
:101AB0000F30F0050030F105F205F305FB30F007BB
:101AC00004300318013EF1077008BF007108C00020
:101AD0008A111A208A150A12C600C02D4708F00084
:101AE0004808F100F00DF10D7010F00DF10D7010BF
:101AF0006530F00704300318013EF1077008BF009D
:101B00007108C0008A111A208A150A12F400BF0A4F
:101B10000319C00A8A111A208A150A12F500BF0A91
:101B20000319C00A8A111A208A150A12F600BF0A80
:101B30000319C00A8A111A208A150A12F7005E08D2
:101B4000F0005F08F1006008F2006108F3008A11FC
:101B500021208A1507307005C6003030C607C02D19
:101B60006208003A0319782C6208C03A0319782CED
:101B70006208803A0319C82C6208403A03196E2D96
:101B80005A08840046088000DA0AC30A0319C40A06
:101B9000662CC11DE62D8030F00080304A067002B0
:101BA000031DD42D4908003C0318E62D5A08840073
:101BB00020308000DA0AC30A0319C40A0130C902BE
:101BC000031CCA0349084A04031DD62D06284308EE
:081BD000F0004408F1000800D8
:1008CA000134003400340034083400340034003475
:1008DA00403400340034003400340234003400342C
:1008EA0000341034003400340034803400340034CE
:1008FA00003400340434003400340034203400342A
:10090A000034003400340134003400340034083434
:10091A0000340034003440340034003400340034ED
:10092A0001340034003400340A3400340034003412
:10093A006434003400340034E834033400340034BE
:10094A001034273400340034A0348634013400349F
:10095A00403442340F3400348034963498340034AE
:10096A000034E134F53405340034CA349A343B3463
:10097A0001340034003400341034003400340034BC
:10098A0000340134003400340034103400340034AC
:10099A00003400340134003400340034103400349C
:1009AA00003400340034013400340034003410348C
:0A09BA006E3475346C346C34003474
:1009C40050346534723473346F346E346134733438
:0609D4003A342034003427
:1009DA004E3475346D34653472346F3420344D348A
:0C09EA00E134783469346D346F3400342B
:1009F60030343134323433343434353436343734B5
:100A0600383439346134623463346434653466347A
:020A16000034AA
:100A18003034313432343334343435343634373492
:100A28003834393441344234433444344534463418
:020A3800003488
:060A3A0025347534003480
:02400E004A2F37
:00000001FF
