:020000008B294A
:06000600000000000800EC
:0E000C00213083120313FD00FD0B0A280800AB
:10001A000F3083120313FC004730FD00FD0B132839
:0A002A00FC0B132800000000080082
:1000340083120313E61B2028861121288615661BCC
:100044002528061126280615E61A2A2886102B28A4
:100054008614661A2F280610302806144E183428E1
:10006400061635280612861603208612E6193C2841
:1000740086113D2886156619412806114228061561
:10008400E618462886104728861466184B2806105A
:100094004C2806144E1850280616512806128616A7
:1000A400032086124E1C58280D20592806200800CB
:1000B400063083120313FD00FD0B5E2800000800C8
:1000C400831203134E106108E6001A204E14080030
:0E00D400831203134B088A004A0882000800BA
:1000E20083120313E101E301E4011030E50004305F
:1000F20064020318A228F03088008030F0007008F3
:10010200083E84006509F000700880000320032087
:100112000F300805F0007008E200700803199C28EF
:100122006308E100620803199A28E20CE213E10A6B
:1001320093280430E400E50D65100430E307E40A77
:0801420078286108F0000800B4
:10014A0071207008DD000F300805F0000319AF2890
:0A015A005A20A8285D08F0000800F4
:10016400C428803083120313DD00D728C030DD009B
:10017400D7289430DD00D728D430DD00D72880304C
:10018400DD00D728831203135D08013A0319B3284D
:100194005D08023A0319B8285D08033A0319BB281D
:1001A4005D08043A0319BE28C1285E03F0005D0807
:1001B400F0077008DD004E147008E6001A204E1097
:0A01C4005F08E6001A204E14080040
:1001CE00F928803083120313DD000C29C030DD00C6
:1001DE000C299430DD000C29D430DD000C29803040
:1001EE00DD000C29831203135D08013A0319E82878
:1001FE005D08023A0319ED285D08033A0319F02849
:10020E005D08043A0319F328F6285E03F0005D0832
:10021E00F0077008DD007008E6001A204E10E001AD
:10022E0060085F07840000080319252960085F072E
:10023E0084000008E1006220E00A17294E1408002D
:10024E00803083120313F0007008083E8400FF30E4
:04025E008000080014
:100262006A208A110A128000840ACA0A0319CB0A78
:08027200F003031D312908000F
:10027A0083160313861206120610861006118611BB
:10028A0083128612061286110611861006100D2098
:10029A000D200D20861406148616032086120D20C2
:1002AA008616032086120D208616032086120D203C
:1002BA0006108616032086120D2086160320861243
:1002CA00861086158616032086120D2086110614BE
:1002DA0086160320861206108616032086120D2023
:1002EA0086160320861206148616032086120D200F
:1002FA00061086160320861286150615861406141D
:0C030A008616032086120D204E140800F9
:10031600422383120313CF0127213D210130E6003A
:100326001A200C30E6001A200130DD000130DE0014
:100336003E30DF00E720D001A5207008D00070080D
:1003460003199F29D6293130D000162A3230D00021
:10035600162A3330D000162A4130D000162A3430FF
:10036600D000162A3530D000162A3630D000162A8C
:100376004230D000162A3730D000162A3830D00046
:10038600162A3930D000162A4330D000162A2A30D1
:10039600D000162A3030D000162A2330D000162A74
:1003A6004430D000162A5008013A0319A6295008ED
:1003B600023A0319A9295008033A0319AC2950082F
:1003C600043A0319AF295008053A0319B22950080F
:1003D600063A0319B5295008073A0319B8295008EF
:1003E600083A0319BB295008093A0319BE295008CF
:1003F6000A3A0319C12950080B3A0319C4295008AF
:100406000C3A0319C72950080D3A0319CA2950088E
:100416000E3A0319CD2950080F3A0319D02950086E
:10042600103A0319D3290130DD000C30DE005008E4
:10043600DF00B2204D2A0130D0008D2A0230D000D4
:100446008D2A0330D0008D2A0A30D0008D2A043040
:10045600D0008D2A0530D0008D2A0630D0008D2A96
:100466000B30D0008D2A0730D0008D2A0830D000FE
:100476008D2A0930D0008D2A0C30D0008D2A2130EB
:10048600D0008D2AD0018D2A2230D0008D2A0D3041
:10049600D0008D2A5008313A03191E2A5008323AE4
:1004A6000319212A5008333A0319242A5008413ADD
:1004B6000319272A5008343A03192A2A5008353ACC
:1004C60003192D2A5008363A0319302A5008423AA1
:1004D6000319332A5008373A0319362A5008383A8E
:1004E6000319392A5008393A03193C2A5008433A65
:1004F60003193F2A50082A3A0319422A5008303A6B
:100506000319452A5008233A0319472A5008443A42
:1005160003194A2A4F08F000F00D70107008533E78
:10052600840050088000840A8001CF0A04304F02FC
:10053600031C9E290130D1000030D200CC01CD0130
:1005460080304D06F00080307002031DAC2A043066
:100556004C020318022B4C08F0004D08F100F00D78
:10056600F10D70107008533E84000008F300840AF1
:100576000008F4007008203E84000008F100840A98
:100586000008F20074087206031DCB2A7108730670
:10059600031DDE2A00304D06031DD32A03304C0608
:1005A600031DDE2AD101D2010230DD000130DE005A
:1005B6002A30DF00E7204C08F0004D08F100F00D6E
:1005C600F10D70107008533E84000008F300840A91
:1005D6000008F4007008203E84000008F100840A38
:1005E6000008F20074087206031DFB2A71087306E0
:1005F6000319FE2A022BCC0A0319CD0AA32A0030BE
:100606005206031D082B01305106031D112B023023
:10061600DD000130DE003330DF00E7209E29122B9B
:10068400203084002A3083120313F0001830CA008B
:080694000330CB003121080006
:10063000003400340734003401340034063400340C
:04064000003400344E
:1006440043346F34723472346534633474346F34C5
:02065400003470
:1006560049346E3463346F347234723465346334BF
:0606660074346F3400340F
:10066C0043346F346E34743472346134733465349F
:08067C006E3461343A3400349D
:02400E004A2F37
:00000001FF
