:02000000832A51
:06000600000000000800EC
:0E000C00213083120313FD00FD0B0A280800AB
:10001A000F3083120313FC004730FD00FD0B132839
:0A002A00FC0B132800000000080082
:1000340083160313B61B21288312861223288312E6
:1000440086168316361B2928831206122B28831240
:1000540006168316B61A31288312861133288312A2
:1000640086158316361A3928831206113B28831203
:10007400061563183F28061440280610861403202A
:1000840086108316B6194928831286124B288312C8
:1000940086168316361951288312061253288312A2
:1000A40006168316B6185928831286115B28831204
:1000B4008615831636186128831206116328831265
:1000C400061563186728061468280610861403208A
:0E00D4008610631C6F280D207028062008007F
:1000E200063083120313FD00FD0B75280000080083
:1000F20083160313B101B301B4011030B50004300B
:1001020034020318AE28F030831288008030F000E9
:100112007008083E840083163509F00070088000DC
:10012200032003200F3083120805F00070088316A5
:10013200B20070080319A8283308B1003208031965
:10014200A628B20CB213B10A9F280430B400B50D30
:1001520035100430B307B40A80283108F0000800D3
:0E016200831203135C088A005B088200080009
:1001700083120313631083163108B6001A20631428
:02018000080075
:1001820079207008AD000F3083120805F0000319C2
:0E019200CC287120C42883162D08F000080028
:1001A000E228803083160313AD00F528C030AD007F
:1001B000F5289430AD00F528D430AD00F528803016
:1001C000AD00F528831603132D08013A0319D12831
:1001D0002D08023A0319D6282D08033A0319D92805
:1001E0002D08043A0319DC28DF282E03F0002D081F
:1001F000F0077008AD007008B6001A20631083166F
:10020000B00130082F0784000008031910293008B6
:100210002F0784000008B100B8208316B00A012916
:06022000831263140800C4
:100226006429013083160313AD000030AE00E629C1
:100236000230AD000030AE00E6290330AD000030DC
:10024600AE00E6290A30AD000030AE00E6290430E3
:10025600AD000030AE00E6290530AD000030AE003E
:10026600E6290630AD000030AE00E6290B30AD00C1
:100276000030AE00E6290730AD000030AE00E629BA
:100286000830AD000030AE00E6290930AD00003080
:10029600AE00E6290C30AD000030AE00E629213074
:1002A600AD000030AE00E629AD01AE01E6292230F0
:1002B600AD000030AE00E6290D30AD000030AE00D6
:1002C600E6298316031300302E06031D6C293130F0
:1002D6002D060319142900302E06031D7429323009
:1002E6002D0603191B2900302E06031D7C293330E9
:1002F6002D060319202900302E06031D84294130BE
:100306002D060319252900302E06031D8C293430AD
:100316002D0603192A2900302E06031D942935308F
:100326002D0603192F2900302E06031D9C29363071
:100336002D060319342900302E06031DA429423048
:100346002D060319392900302E06031DAC29373036
:100356002D0603193E2900302E06031DB429383018
:100366002D060319432900302E06031DBC293930FA
:100376002D060319482900302E06031DC4294330D3
:100386002D0603194D2900302E06031DCC292A30CF
:100396002D060319522900302E06031DD4293030AC
:1003A6002D060319572900302E06031DDC2923309C
:1003B6002D0603195A2900302E06031DE429443060
:0803C6002D0603195F29080050
:1003CE00F929803083160313AD000C2AC030AD001E
:1003DE000C2A9430AD000C2AD430AD000C2A80309B
:1003EE00AD000C2A831603132D08013A0319E829D0
:1003FE002D08023A0319ED292D08033A0319F029A5
:10040E002D08043A0319F329F6292E03F0002D08BE
:10041E00F0077008AD008312631470088316B600DF
:10042E001A20631083162F08B6001A2063140800D2
:10043E0083160313861006100611861106128612F5
:10044E0083128610061086120612861106110D20D2
:10045E000D200D20861506158614032086100D20FE
:10046E008614032086100D208614032086100D207E
:10047E0006118614032086100D2086140320861084
:10048E00861186168614032086100D2086120615F8
:10049E0086140320861006118614032086100D2064
:1004AE0086140320861006158614032086100D2050
:1004BE000611861403208610861606168615061556
:0C04CE008614032086100D206314080023
:1004DA00B1208A110A128000840ADB0A0319DC0A95
:0804EA00F003031D6D2A080058
:1004F200803083120313F0007008083E8400FF303E
:04050200800008006D
:10050600142583120313DA0179221F220130831680
:10051600B6001A200C308316B6001A200130831656
:10052600AD000130AE002030AF00D020023083167F
:10053600AD000130AE002830AF00D0200830DD001D
:100546000030DE00DF01E00180306006F000803020
:100556007002031DB02A06305F020318542B83165F
:10056600A001C1207008A00070080319B42A8312E4
:10057600DD0A0319DE0AF02A31308316A000312B7A
:100586003230A000312B3330A000312B4130A00097
:10059600312B3430A000312B3530A000312B3630D2
:1005A600A000312B4230A000312B3730A000312B78
:1005B6003830A000312B3930A000312B4330A00059
:1005C600312B2A30A000312B3030A000312B2330C4
:1005D600A000312B4430A000312B83162008013AAD
:1005E6000319BF2A2008023A0319C32A2008033A2E
:1005F6000319C62A2008043A0319C92A2008053A0D
:100606000319CC2A2008063A0319CF2A2008073AEC
:100616000319D22A2008083A0319D52A2008093ACC
:100626000319D82A20080A3A0319DB2A20080B3AAC
:100636000319DE2A20080C3A0319E12A20080D3A8C
:100646000319E42A20080E3A0319E72A20080F3A6C
:100656000319EA2A2008103A0319ED2A0130AD00E1
:1006660083125D088316AE002008AF00E7218316CB
:100676002008AD00AE01132183125F08F000600868
:10068600F100F00DF10D70107008643E84008316C1
:1006960020088000840A80018312DF0A0319E00A19
:1006A600A72A0830DD000030DE00DF01E0018030DF
:1006B6006006F00080307002031D632B06305F0277
:1006C6000318072C8316A001C1207008A00070082B
:1006D6000319672B8312DD0A0319DE0AA32B3130B7
:1006E6008316A000E42B3230A000E42B3330A000A8
:1006F600E42B4130A000E42B3430A000E42B35304D
:10070600A000E42B3630A000E42B4230A000E42BFE
:100716003730A000E42B3830A000E42B3930A0009D
:10072600E42B4330A000E42B2A30A000E42B303029
:10073600A000E42B2330A000E42B4430A000E42BDF
:1007460083162008013A0319722B2008023A03196E
:10075600762B2008033A0319792B2008043A03194B
:100766007C2B2008053A03197F2B2008063A03192B
:10077600822B2008073A0319852B2008083A03190B
:10078600882B2008093A03198B2B20080A3A0319EB
:100796008E2B20080B3A0319912B20080C3A0319CB
:1007A600942B20080D3A0319972B20080E3A0319AB
:1007B6009A2B20080F3A03199D2B2008103A03198B
:1007C600A02B0230AD0083125D088316AE00200810
:1007D600AF00E72183162008AD00AE011321831276
:1007E6005F08F0006008F100F00DF10D7010700860
:1007F600A13E8400831620088000840A80018312AB
:10080600DF0A0319E00A5A2B0630FB001330FC00FE
:10081600AD30FD00FD0B0D2CFC0B0D2CFB0B0D2C38
:100826000000000001308316B6001A20E101E20143
:10083600DF01E00180306006F00080307002031DA9
:10084600262C06305F020318A32C5F08F000600810
:10085600F100F00DF10D70107008643E8400000880
:10086600F300840A0008F4007008A13E8400000822
:10087600F100840A0008F20074087206031D452C74
:1008860071087306031D532C00306006031D4D2CA2
:1008960005305F06031D532C0230E1000030E200F4
:1008A6005F08F0006008F100F00DF10D701070089F
:1008B600643E84000008F300840A0008F40070080F
:1008C600A13E84000008F100840A0008F20080308E
:1008D6007206F000803074067002031D742C7308D3
:1008E60071020318782CE101E2015F08F00060084C
:1008F600F100F00DF10D70107008643E84000008E0
:10090600F300840A0008F4007008A13E8400000881
:10091600F100840A0008F20080307406F00080308E
:1009260072067002031D992C7108730203189F2C1E
:100936000130E1000030E200DF0A0319E00A1D2C55
:1009460000306206031DA92C00306106031DB32C7E
:1009560001308316AD000130AE003030AF00D0203C
:1009660000306206031DB92C01306106031DC32C3D
:1009760001308316AD000130AE003E30AF00D0200E
:1009860000306206031DC92C02306106031DD32CFC
:1009960001308316AD000130AE004C30AF00D020E0
:0209A600D32C50
:100A2800203084003A3083120313F000D930DB0001
:080A38000430DC006D2208000F
:1009B200563461346C346F34723431343A34003426
:1009C200563461346C346F34723432343A34003415
:1009D200563461346C346F34723431343E345634AC
:0C09E20061346C346F34723432340034F1
:1009EE00563461346C346F34723432343E3456348F
:0C09FE0061346C346F34723431340034D6
:100A0A00563461346C346F34723431343D34563474
:0C0A1A0061346C346F34723432340034B8
:02400E004A2F37
:00000001FF
