:020000000328D3
:100006008316031386010130831286000330FB003A
:100016008A30FC005530FD00FD0B0F28FC0B0F2825
:10002600FB0B0F28000000000230F3000030F40044
:10003600F101F20180307206F00080307002031D7B
:100046002628073071020318402883127308860099
:100056000330FB008A30FC005530FD00FD0B3128D3
:10006600FC0B3128FB0B312800000000F30DF40DCA
:0E0076007310F10A0319F20A1D28062841280A
:02400E004A2F37
:00000001FF
