:020000004C2989
:10000800FF00030E8301CF000A08D0008A010330E5
:10001800A0000030A1008B1050088A004F0E83000A
:06002800FF0E7F0E09002F
:0E002E00213083120313FD00FD0B1B28080078
:10003C000F3083120313FC004730FD00FD0B242806
:0A004C00FC0B24280000000008004F
:060056000000000008009C
:10005C0083120313D61B3428871135288715561B9A
:10006C00392807113A280715D61A3E2887103F2839
:10007C008714561A43280710442807143C1848289C
:10008C0007164928071287162B208712D6195028D5
:10009C008711512887155619552807115628071509
:1000AC00D6185A2887105B28871456185F28071013
:1000BC00602807143C186428071665280712871651
:1000CC002B2087123C1C6C281E206D281720080042
:0E00DC00831203133B088A003A0882000800D2
:1000EA00831203133C105508D6002E203C14080036
:1000FA008F28803083120313D100A228C030D10088
:10010A00A2289430D100A228D430D100A22880306D
:10011A00D100A228831203135108013A03197E2839
:10012A005108023A031983285108033A0319862809
:10013A005108043A031989288C285203F0005108FF
:10014A00F0077008D1007008D6002E203C10D401A8
:10015A0054085307840000080319BB28540853079E
:10016A0084000008D5007520D40AAD283C14080084
:10017A00CF28803083120313D100E228C030D10087
:10018A00E2289430D100E228D430D100E22880302D
:10019A00D100E228831203135108013A0319BE2839
:1001AA005108023A0319C3285108033A0319C62809
:1001BA005108043A0319C928CC285203F0005108FF
:1001CA00F0077008D1003C147008D6002E203C10AD
:0A01DA005308D6002E203C14080044
:1001E4006E208A110A128000840ABA0A0319BB0A13
:0801F400F003031DF2280800CE
:1001FC008316031387120712071087100711871134
:10020C0083128712071287110711871007101E20FF
:10021C001E201E208714071487162B2087121E20E1
:10022C0087162B2087121E2087162B2087121E2044
:10023C00071087162B2087121E2087162B2087125B
:10024C008710871587162B2087121E2087110714FD
:10025C0087162B208712071087162B2087121E203B
:10026C0087162B208712071487162B2087121E2027
:10027C00071087162B20871287150715871407146C
:0C028C0087162B2087121E203C1408004F
:1002980083120313A001A1014730A2006930A30013
:1002A8007330A4006530A5006C30A600A701A80132
:1002B800A9013130AA00AB013630AC00AD013130B4
:1002C800AE00AF013030B000B1013030B200B30140
:1002D8003730B400B5013130B600B7013630B80058
:1002E800B9018B170B16FE200C30D6002E200130DA
:1002F800D6002E20CD01CE018030F00080304E0691
:100308007002031D89294D08073C031C0F2A4D085C
:10031800F0004E08F100F00DF10D701070083D3E30
:10032800F20070082A3E84000008F000840A0008E1
:10033800F10072088400700880007108840A800047
:100348000130D1004D0AD2004D08F0004E08F100EE
:10035800F00DF10D701070082A3E84000008D300DB
:10036800BD200B30FB002630FC005D30FD00FD0B8E
:10037800BB29FC0BBB29FB0BBB290000000000308C
:100388002106031DC92903302006031D0B2A01304D
:10039800D6002E200130D1000130D2002230D30007
:1003A8007D200B30FB002630FC005D30FD00FD0B8E
:1003B800DB29FC0BDB29FB0BDB29000000000130EB
:1003C800D6002E20A801A90180304E06F00080300A
:1003D80029067002031DF22928084D02031C092A68
:1003E8000130D100280AD2002808F0002908F100BD
:1003F800F00DF10D701070083D3E84000008D30028
:10040800BD20A80A0319A90AE829A001A101CD0A5B
:0A0418000319CE0A80297B29102A5F
:02400E004A2F37
:00000001FF
