:020000000328D3
:100006008316031386010130831286000630FB0037
:100016001330FC00AD30FD00FD0B0F28FC0B0F2844
:10002600FB0B0F28000000000230F5000030F60040
:10003600F301F40180307406F00080307002031D75
:100046002628073073020318402883127508860095
:100056000630FB001330FC00AD30FD00FD0B3128EF
:10006600FC0B3128FB0B312800000000F50DF60DC6
:100076007510F30A0319F40A1D28F301F401803000
:10008600F000803074067002031D4B287308063C8E
:10009600031C76287508F0007608F100F10CF00CC8
:1000A600F113711BF117F11F5D28031C5D28F00A7F
:1000B6000319F10A83127008F5007108F60070083A
:1000C60086000630FB001330FC00AD30FD00FD0B52
:1000D6006A28FC0B6A28FB0B6A2800000000F30A5A
:0A00E6000319F40A422806287728BF
:02400E004A2F37
:00000001FF
