:020000003B2A99
:0E000600213083120313FD00FD0B07280800B4
:100014000F3083120313FC004730FD00FD0B102842
:0A002400FC0B10280000000008008B
:06002E00000000000800C4
:1000340083120313C81B2028861121288615481B08
:100044002528061126280615C81A2A2886102B28C2
:100054008614481A2F280610302806142D18342820
:10006400061635280612861617208612C8193C284B
:1000740086113D288615481941280611422806157F
:10008400C818462886104728861448184B28061096
:100094004C2806142D1850280616512806128616C8
:1000A400172086122D1C58280A20592803200800DE
:1000B40083120313F801F9011030FC00710DF80DDF
:1000C400F90D7408F8027508031C750FF90203187A
:1000D40072287408F80775080318750FF9070310D8
:0A00E400F00DF10DFC0B6028080080
:1000EE0083120313C60105304602031885284608FD
:1000FE004507840020308000C60A7A284608450746
:10010E0084008001C60346084507C7000A30F40084
:10011E00F5014308F0004408F1005A207808F00079
:10012E007908F1003030F00747088400700880002D
:10013E000A30F400F5014308F0004408F1005A209B
:10014E007008C3007108C40000307106031DB12889
:10015E0000307006031DB428B628C6038A2808008E
:10016E000E3083120313FD00FD0BBB2800000800A8
:0E017E008312031332088A0031088200080041
:10018C00831203132D104308C8001A202D140800E5
:10019C00E028803083120313BA00F328C030BA0071
:1001AC00F3289430BA00F328D430BA00F328803006
:1001BC00BA00F328831203133A08013A0319CF2823
:1001CC003A08023A0319D4283A08033A0319D728F3
:1001DC003A08043A0319DA28DD283B03F0003A0800
:1001EC00F0077008BA007008C8001A202D10BD0165
:1001FC003D083C078400000803190C293D083C0706
:10020C0084000008C300C620BD0AFE282D14080077
:10021C00831203139F01C0309F042009F000700863
:10022C0083169F051F179F1783123A08F000F00DD5
:10023C007010F00D7010F00D701070089F041F14EA
:10024C00B7201F151F1D2C29000028291F101E0860
:10025C00F100F00183161E08F0040030F1040800D0
:10026C0083120313FB01FA01F9018030F800F10C41
:10027C00F00C031C4A297408F90775080318750F4C
:10028C00FA070318FB0A0310F01F52297408FA0727
:10029C0075080318750FFB07FB0CFA0CF90CF80C1E
:1002AC00031C3D297B08F3007A08F2007908F10061
:0602BC007808F0000800C4
:1002C20083120313BF01C0013A08C1003B08C200F8
:1002D20080303B06F00080307002031D722900302E
:1002E2003A02031880290130BF000030C0003A08EA
:1002F200003CC1003B08031C013EC201C20241088E
:10030200C3004208C4003C08C50077200630BD0087
:100312000030BE003E08003C031D91293D08003C10
:100322000318AC293D083C07F20001303D02F00001
:100332000030031C013E3E02F10070083C078400BD
:100342000008F00072088400700880000130BD02CD
:10035200031CBE038B293C088400203080003F0828
:1003620040040319CA29BD01BE013D083C078400AF
:100372000008203A031DC129BD0A0319BE0AB62985
:100382000130BD02031CBE033D083C0784002D3032
:0403920080000800DF
:10039600FF3083120313AE00FF30AF00FF30B00012
:1003A600FF309F01C0309F042009F00070088316BB
:0C03B6009F051F179F1783121F140800DB
:1003C200BF208A110A128000840AB10A0319B20AF4
:0803D200F003031DE1290800FE
:1003DA00831603138612061206108610061186115A
:1003EA0083128612061286110611861006100A203A
:1003FA000A200A20861406148616172086120A2056
:10040A008616172086120A208616172086120A20B8
:10041A0006108616172086120A20861617208612BC
:10042A00861086158616172086120A20861106144B
:10043A0086161720861206108616172086120A209C
:10044A0086161720861206148616172086120A2088
:10045A0006108616172086128615061586140614A7
:0C046A008616172086120A202D140800A8
:100476008C22ED210130C8001A200C30C8001A2049
:10048600CB21803083169F00013085000130831216
:10049600BA000E211230F4000030F5003621FF308C
:1004A600F4000330F5005A207008B8007108B9004E
:1004B6007008BA007108BB003330BC0061210130FE
:1004C600BA000130BB002430BC00CE200130BA0097
:1004D6000A30BB003330BC00CE200130BA000E30EB
:0C04E600BB002130BC00CE20492A782A3F
:10051800203084000D3083120313F0007E30B100C8
:080528000230B200E1210800DD
:0204FC000F34BB
:0604FE006D345634003499
:1005040056346F346C34743461346A3465343A3438
:020514000034B1
:02400E004A2F37
:00000001FF
