:02000000E328F3
:10000800FF00030E8301A6000A08A5008A010C1C44
:1000180023288030F000803023067002031D162844
:100028002208003C0318232890013C308F00AF3091
:100038008E000130A202031CA303013090000C10B3
:0E00480025088A00260E8300FF0E7F0E090099
:0E005600213083120313FD00FD0B2F2808003C
:0E0064008312031321088A002008820008007E
:0600720000000000080080
:100078000F3083120313FC004730FD00FD0B4228AC
:0A008800FC0B4228000000000800F5
:1000920032208A110A128000840AA00A0319A10AD6
:0800A200F003031D49280800CA
:1000AA0083120313A71B5B2886115C288615271B5E
:1000BA006028061161280615A71A65288610662881
:1000CA008614271A6A2806106B28061424186F2823
:1000DA00061670280612861639208612A71977285E
:1000EA0086117828861527197C2806117D28061579
:1000FA00A7188128861082288614271886280610B1
:10010A008728061424188B2806168C2806128616A9
:10011A0039208612241C93283C2094282B2008007E
:10012A00831603138612061206108610061186110C
:10013A0083128612061286110611861006103C20BA
:10014A003C203C20861406148616392086123C2050
:10015A008616392086123C208616392086123C20C3
:10016A0006108616392086123C20861639208612F9
:10017A00861086158616392086123C2086110614AA
:10018A0086163920861206108616392086123C20D9
:10019A0086163920861206148616392086123C20C5
:1001AA000610861639208612861506158614061438
:0C01BA008616392086123C202414080010
:1001C60095200130A70055200C30A7005520383067
:1001D6009000AF308E003C308F00013090008316C7
:0401E6000C14F428D9
:02400E004A2F37
:00000001FF
