:1000000014C1000042C1000040C100003EC1000018
:100010003CC100003AC1000038C1000036C10000F8
:1000200034C1000032C1000030C100002EC1000008
:100030002CC100002AC1000028C1000026C1000018
:1000400024C1000022C1000020C100001EC1000028
:100050001CC100001AC1000018C100004BC50000FF
:1000600014C10000BAC500008FC500000EC1000019
:100070000CC100000AC1000008C1000006C1000058
:1000800004C1000002C1000000C10000FEC0000069
:10009000FCC00000FAC00000F8C00000F6C000007C
:1000A000F4C00000F2C00000F0C00000EEC000008C
:1000B000ECC00000EAC00000E8C00000E6C000009C
:1000C000E4C00000E2C00000E0C00000DEC00000AC
:1000D000DCC00000DAC00000D8C00000D6C00000BC
:1000E000D4C000008401870176017A018001BE013D
:1000F0008B018F01950199019D01A301A701AB011E
:10010000BE01B101B501B9010000210024002700A2
:100110002A002D0030003300010100000401070116
:100120000A0100002200250028002B002E003100CB
:10013000340002010000050108010B01000020004D
:100140002300260029002C002F00320000010000AF
:10015000030106010901050505050705080808084A
:10016000020202020A0A080804040404010101014F
:10017000010101010303030303030303040707074A
:100180000C0C0C0C0C0C0C0C0202020206060606EF
:10019000060606060B0B0B0B0B0B0B0B01021020BC
:1001A00020080810204010204080020102010804AD
:1001B0000201010204081020408080402010080441
:1001C000020180040201804020100804020108049A
:1001D00002010102040810204080010204081020DE
:1001E000408000000A0B02090C0D0E0807030401F1
:1001F00000000000000000000000000000000000FF
:1002000000000000000000000000000000001211CB
:1002100010000000000000000000000000000000CE
:100220000000000000000000230611241FBECFEFD5
:10023000D1E2DEBFCDBF00E00CBF12E0A0E0B2E033
:10024000ECE8F3E100E00BBF02C007900D92AC3682
:10025000B107D9F723E0ACE6B2E001C01D92AD3999
:10026000B207E1F711E0C5E1D1E000E006C0219757
:100270000109802FFE010E94B809C431D10780E036
:100280000807A9F799D50C94C409BACE96E0899FBE
:10029000D0011124AA5EBC4F90967C936E935F9719
:1002A00091E091969C93919790918203E0918303C2
:1002B000F0918403992339F0309751F0811108C0EF
:1002C0008091320304C0309719F05C968C91199498
:1002D000089590E0FC013197E231F10508F04EC03D
:1002E0008827EE58FF4F8F4F0C94B80980918000FB
:1002F0008F7703C0809180008F7D80938000089568
:1003000080918000877FF9CF84B58F7702C084B554
:100310008F7D84BD08958091B0008F7703C0809158
:10032000B0008F7D8093B0000895809190008F770A
:1003300007C0809190008F7D03C080919000877FDF
:100340008093900008958091A0008F7707C08091DE
:10035000A0008F7D03C08091A000877F8093A000C4
:100360000895809120018F7707C0809120018F7DB3
:1003700003C080912001877F809320010895CF934F
:10038000DF93282F30E0F901EE51FE4F8491F901FF
:10039000E456FE4FD491F901EA5AFE4FC491CC23A2
:1003A00089F0811196DFEC2FF0E0EE0FFF1FE45C87
:1003B000FE4FA591B491EC91ED2381E090E021F402
:1003C00080E002C080E090E0DF91CF9108951F931C
:1003D000CF93DF93282F30E0F901EE51FE4F849147
:1003E000F901E456FE4FD491F901EA5AFE4FC49147
:1003F000CC23B9F0162F81116CDFEC2FF0E0EE0F5B
:10040000FF1FEE5DFE4FA591B4919FB7F8941111B7
:1004100004C08C91D095D82302C0EC91DE2BDC93E4
:100420009FBFDF91CF911F910895CF93DF9390E00D
:10043000FC01E456FE4F2491FC01EA5AFE4F8491E0
:10044000882361F190E0880F991FFC01E85FFE4F5F
:10045000C591D491FC01EE5DFE4FA591B49161115F
:1004600009C09FB7F8948881209582238883EC91F6
:100470002E230BC0623061F49FB7F8948881322F2D
:10048000309583238883EC912E2B2C939FBF06C03D
:100490008FB7F894E8812E2B28838FBFDF91CF91FF
:1004A00008953FB7F8948091750290917602A091DB
:1004B0007702B091780226B5A89B05C02F3F19F0AE
:1004C0000196A11DB11D3FBFBA2FA92F982F8827D4
:1004D000820F911DA11DB11DBC01CD0142E0660F2F
:1004E000771F881F991F4A95D1F708952FB7F89461
:1004F0006091710270917202809173029091740206
:100500002FBF08950F931F93CF93DF93C82FD62F3C
:1005100086E0C89FF0011124EA5EFC4F11A2878D8E
:1005200090A181309105C9F040F08230910591F1A0
:100530000397D1F560E070E031C06623A9F161E076
:1005400070E08C2FA3DED2DF60936E0370936F0395
:10055000809370039093710327C0C8DF00916E03EE
:1005600010916F032091700330917103AB01BC01B6
:10057000401B510B620B730B8091800390918103A0
:10058000A0E0B0E084179507A607B70718F462E06B
:1005900070E004C0D11108C063E070E08C2FDF91DF
:1005A000CF911F910F9172CEDF91CF911F910F913B
:1005B0000895862F642F39CF862F642F08CF862F7A
:1005C000DECECF92DF92EF92FF920F931F93CF93E5
:1005D000DF936C017A018B01C0E0D0E0CE15DF051E
:1005E00081F0D8016D918D01D601ED91FC910190C2
:1005F000F081E02DC6011995892B11F02196EECFDF
:100600007E01C701DF91CF911F910F91FF90EF9075
:10061000DF90CF900895FC01538D448D252F30E05D
:10062000842F90E0821B930B541710F0CF960895FF
:1006300001970895FC01918D828D981761F0828D4C
:10064000DF01A80FB11D5D968C91928D9F5F9F7306
:10065000928F90E008958FEF9FEF0895FC01918DA8
:10066000828D981731F0828DE80FF11D858D90E015
:1006700008958FEF9FEF0895FC01918D228D892FB2
:1006800090E0805C9F4F821B91098F73992708959A
:1006900089E792E0F1DF21E0892B09F420E0822F45
:1006A0000895FC01848DDF01A80FB11DA35ABF4F2F
:1006B0002C91848D90E001968F739927848FA68961
:1006C000B7892C93A089B1898C91837080648C93B5
:1006D000938D848D981306C00288F389E02D808164
:1006E0008F7D80830895EF92FF920F931F93CF9396
:1006F000DF93EC0181E0888F9B8D8C8D981305C072
:10070000E889F989808185FD25C0F62E0B8D10E0E2
:100710000F5F1F4F0F731127E02E8C8DE8120BC057
:100720000FB607FCFACFE889F989808185FFF5CFFC
:10073000CE01B7DFF2CF8B8DFE01E80FF11DE35A3A
:10074000FF4FF0829FB7F8940B8FEA89FB89808175
:1007500080620AC09FB7F894EE89FF896083E889B8
:10076000F98980818370806480839FBF81E090E0FD
:10077000DF91CF911F910F91FF90EF900895CF934C
:10078000DF93EC01888D8823C1F0EA89FB898081A1
:1007900085FD05C0A889B9898C9186FD0EC00FB66C
:1007A00007FCF5CF808185FFF2CFA889B9898C91AC
:1007B00085FFEDCFCE0175DFE8CFDF91CF910895B2
:1007C00080E090E0892B19F063DF811125C080E083
:1007D00090E0892B41F080E090E0892B21F00E948D
:1007E000000081111CC080E090E0892B41F080E086
:1007F00090E0892B21F00E940000811113C080E05D
:1008000090E0892BA1F080E090E0892B81F00E949C
:10081000000081110AC008950E940000D8CF0E94F4
:100820000000E1CF0E940000EACF0C940000089580
:10083000CF93DF93EC0160E08E81C9DD61E08E81B2
:10084000C6DD60E08E81C3DD8BE891E00197F1F7B2
:10085000DF91CF910895CF92DF92EF92FF920F93A5
:100860001F93CF93DF936C017C0187E0E80EF11CAE
:10087000C0E0D0E0062F10E0B8010C2E02C0759544
:1008800067950A94E2F76170F70181917F019FDD1E
:100890002196C430D10581F7C601DF91CF911F9118
:1008A0000F91FF90EF90DF90CF90C2CFCF92DF9269
:1008B000EF92FF920F931F93CF93DF93EC01F62EED
:1008C000642F8C8184DD8D818F3F11F060E07FDDAE
:1008D0008F850F2D10E084FF23C06E0187E0C80EC6
:1008E000D11CE12CF12CB8010E2C02C07595679536
:1008F0000A94E2F76170F60181916F0168DDFFEF04
:10090000EF1AFF0A88E0E816F10469F7CE01DF91DB
:10091000CF911F910F91FF90EF90DF90CF9088CFF4
:10092000B80184E0759567958A95E1F7CE0193DF6C
:100930006F2DCE01DF91CF911F910F91FF90EF901E
:10094000DF90CF9088CF40E0682F85E893E0AECF6E
:10095000CF93DF93623028F0909194039860909346
:100960009403609398031092990390E490939A03F0
:1009700080939B0390E0805C9F4F80939C0361E099
:100980008091890352DD80918A038F3F11F061E0ED
:100990004CDD61E080918B0348DDC5E8D3E09E012A
:1009A000255833408091940384FD03C084E090E097
:1009B00002C088E090E021962817390724F461E00E
:1009C0008E8133DDECCF8BE39DE00197F1F760E0A2
:1009D00080918903FCDC60E080918B03F8DC8091DE
:1009E0008A038F3F11F060E0F2DC8091940384FD74
:1009F0001CC063E085E893E02EDFCBE4D6E4CE01B3
:100A00000197F1F763E085E893E025DF2197F1F79F
:100A100063E085E893E01FDF83E592E00197F1F75B
:100A200062E085E893E017DF12C080628CDF8BE420
:100A300096E40197F1F780919403806284DF83E567
:100A400092E00197F1F78091940380627CDF8091BE
:100A50009403806278DF84E0809395038CE073DFF9
:100A600081E071DF8BE39FE10197F1F782E08093F2
:100A7000960386E0DF91CF9166CF643008F063E0A3
:100A800090919803691710F06FEF690FE62FF0E06F
:100A9000EB57FC4F9489890F806855CF41E006DF02
:100AA00081E090E008950F931F93CF93DF938B0124
:100AB000877028E0829FC0011124806444DFE80130
:100AC000085F1F4F699185E893E0E8DFC017D10701
:100AD000C9F7DF91CF911F910F910895089580E09C
:100AE00090E0089541E050E06AE672E085E893E026
:100AF00068CD46D41F920F920FB60F9211242F93F8
:100B00003F938F939F93AF93BF9380917102909186
:100B10007202A0917302B09174023091700223E0CE
:100B2000230F2D3720F40196A11DB11D05C026E825
:100B3000230F0296A11DB11D2093700280937102B4
:100B400090937202A0937302B09374028091750225
:100B500090917602A0917702B09178020196A11D42
:100B6000B11D8093750290937602A0937702B093A3
:100B70007802BF91AF919F918F913F912F910F90EC
:100B80000FBE0F901F9018951F920F920FB60F92E5
:100B900011240BB60F922F933F934F935F936F9354
:100BA0007F938F939F93AF93BF93EF93FF9389E7C7
:100BB00092E077DDFF91EF91BF91AF919F918F917F
:100BC0007F916F915F914F913F912F910F900BBE4D
:100BD0000F900FBE0F901F9018951F920F920FB697
:100BE0000F9211240BB60F922F938F939F93EF9335
:100BF000FF93E0918902F0918A028081E0918F0257
:100C0000F091900282FD12C09081809192028F5FDC
:100C10008F7320919302821751F0E0919202F0E0DD
:100C2000E758FD4F958F8093920201C08081FF911C
:100C3000EF919F918F912F910F900BBE0F900FBE50
:100C40000F901F90189510927C0210927B0288EEF4
:100C500093E0A0E0B0E080937D0290937E02A093A9
:100C60007F02B093800286E492E090937A028093B0
:100C7000790285EC90E0909386028093850284EC63
:100C800090E0909388028093870280EC90E09093AC
:100C90008A028093890281EC90E090938C02809389
:100CA0008B0282EC90E090938E0280938D0286EC12
:100CB00090E09093900280938F0210929202109293
:100CC000930210929402109295021092880310924F
:100CD000870382E692E090938603809385038CE1FC
:100CE000809389038FEF80938A038EE180938B0337
:100CF00080E280938C0382E280938D0384E2809370
:100D00008E0386E280938F031092900310929103DA
:100D100010929203109293031092940361E080E189
:100D200017DE1092180310921C0310921B031092EE
:100D30001D0388E592E09093170380931603E6E184
:100D4000F3E0148E10A2178E11A2369683E0E235DE
:100D5000F807B9F78EE292E09093790380937803D5
:100D60008AE292E090937B0380937A0384E08093FD
:100D70007C0380937D0382E392E0909377038093DA
:100D800076038AE090E090937F0380937E0384EF64
:100D900091E09093810380938003109284031092DA
:100DA00083031092720310927303109274031092D3
:100DB0007503109282030895CF93DF93CDB7DEB70A
:100DC000A1970FB6F894DEBF0FBECDBF789484B55F
:100DD000826084BD84B5816084BD85B5826085BD37
:100DE00085B5816085BD80916E00816080936E00C5
:100DF00010928100809181008260809381008091B7
:100E00008100816080938100809180008160809367
:100E100080008091B10084608093B1008091B00027
:100E200081608093B00080919100826080939100F6
:100E30008091910081608093910080919000816009
:100E4000809390008091A10082608093A1008091A6
:100E5000A10081608093A1008091A00081608093B7
:100E6000A000809121018260809321018091210165
:100E70008160809321018091200181608093200115
:100E800080917A00846080937A0080917A008260F9
:100E900080937A0080917A00816080937A008091BB
:100EA0007A00806880937A001092C100E0918902F4
:100EB000F0918A0282E08083E0918502F0918602BF
:100EC0001082E0918702F09188028FEC808310926B
:100ED0009102E0918D02F0918E0286E08083E09194
:100EE0008B02F0918C02808180618083E0918B0283
:100EF000F0918C02808188608083E0918B02F09178
:100F00008C02808180688083E0918B02F0918C025A
:100F100080818F7D808364E084E11ADD60E272E08D
:100F200080E0C1DD68E172E081E0BDDD60E172E09A
:100F300082E0B9DD68E072E083E0B5DD60E072E098
:100F400084E0B1DD63E082E098DD64E085E893E071
:100F5000A5DD66E0262E7AE0C72ED12CE12CF12CFF
:100F600021E020938203C2DA00917203109173038F
:100F70002091740330917503AB01BC01401B510BF0
:100F8000620B730B80917E0390917F03A0E0B0E031
:100F900084179507A607B707D0F410E025C0B12C39
:100FA000F80181A1882311F0BB24B3940A5F1F4F7D
:100FB000F3E002351F07A1F799DA6093720370938B
:100FC00073038093740390937503B110C2C01092A1
:100FD0008203CBC0E0917803F0917903E10FF11D1A
:100FE00062E0808122DA1F5F80917C03181790F302
:100FF000712C35C0A62CB12CE0917803F0917903C7
:10100000EA0DFB1D8081BBD995012C5F3F4F892BD9
:1010100009F04EC0C901880F991FFC01EA5EFC4F20
:101020008081918184299529918380836394809123
:101030007C036816F8F2E0917A03F0917B03E00FED
:10104000F11F61E08081C3D980917A0390917B0385
:10105000FC01E00FF11F60E08081E7D9739480917B
:101060007D03781680F5072D10E0E0917A03F0916A
:101070007B03E00FF11F61E08081D7D9E0917A0313
:10108000F0917B03E00FF11F60E08081A0D9812CFB
:10109000912C54018394072C04C0880C991CAA1C21
:1010A000BB1C0A94D2F7240180949094612CBFCF8A
:1010B000C901880F991FFC01EA5EFC4F8081918174
:1010C00088219921B1CF06E113E0F801878D90A125
:1010D000892B31F4148E8FEF9FEF968F858F11A29D
:1010E000369693E0E235F90789F7B12C80917C03BD
:1010F000B81608F054CFA12C8B2C912CC401880F6A
:10110000991FFC01E25EFC4F4F0120917D03A21666
:10111000F0F4F401408151810A2C02C056954795A4
:101120000A94E2F7642F6170B29E900111242A0D97
:10113000311DE6E1F3E080E0A58DB68D2A173B076F
:1011400009F4EBC08F5F36968A30B1F7CAC0B3940A
:10115000CDCF80913703882309F439CF80913503AF
:1011600090913603019709F032CF60E080E085DC92
:10117000BDD99B01AC0119A28E010F5D1F4FCA01A1
:10118000B901A7019601D2D0605DF80162938F0189
:10119000211531054105510591F7309759F001901E
:1011A0000020E9F73197AF01401B510BB80185E8EA
:1011B00093E007DA9BD900916C0210916D022091A7
:1011C0006E0230916F0208511C4F2F4F3F4F061790
:1011D00017072807390708F05EC088D960936C02AA
:1011E00070936D0280936E0290936F0200912802BB
:1011F00010912902C8010697049708F03EC061E0EB
:10120000802F3BDC60E085E893E048DC33243394B6
:10121000300E61E0832D31DC61E085E893E03EDC57
:1012200040D92B013C0188EE882E83E0982EA12C1A
:10123000B12C37D9DC01CB0184199509A609B7096E
:10124000883E9340A105B105A0F3F1E08F1A910803
:10125000A108B10828EE420E23E0521E611C711C49
:1012600081149104A104B10421F761E0802F05DC11
:1012700039DC61E0832D01DC35DC8091280290911E
:10128000290202968930910514F086E090E090934F
:101290002902809328022AD961327F4B810591056A
:1012A000F0F024D960936C0270936D0280936E020B
:1012B00090936F0261E086E0E0DB60E085E893E018
:1012C000EDDB61E087E0D9DB61E085E893E0E6DB18
:1012D00060E087E0D2DB63E085E893E0DFDB70DA93
:1012E0003FCE40FF1BC0E6E1F3E080E090E0448D9C
:1012F000411116C0E0917603F0917703E20FF31FDE
:101300004081289EF001299EF00D1124EA5EFC4FD9
:10131000448F368F258F10A2178EF4D8A394F5CE64
:10132000019636968A30910511F7F8CFA1E21A2E70
:10133000AA1BBB1BFD010DC0AA1FBB1FEE1FFF1F79
:10134000A217B307E407F50720F0A21BB30BE40BC9
:10135000F50B661F771F881F991F1A9469F7609510
:101360007095809590959B01AC01BD01CF010895CA
:10137000EE0FFF1F881F8BBF0790F691E02D199489
:0C13800081E090E0F89400C0F894FFCFEA
:10138C0000001B1F0E040000000E0204080E0000DB
:10139C00020911120800040E101008080810081891
:1013AC000D0F18151208121D06002D2B2927353389
:1013BC00312F3132334134353642373839432A30C4
:1013CC002344000000007303E1020B03BF033C0342
:1013DC001A032E0300000000D902DC02DF02000019
:0C13EC0000004E05E1026F056E052000B8
:00000001FF
