:1000000014C1000042C1000040C100003EC1000018
:100010003CC100003AC1000038C1000036C10000F8
:1000200034C1000032C1000030C100002EC1000008
:100030002CC100002AC1000028C1000026C1000018
:1000400024C1000022C1000020C100001EC1000028
:100050001CC100001AC1000018C100004BC50000FF
:1000600014C10000BAC500008FC500000EC1000019
:100070000CC100000AC1000008C1000006C1000058
:1000800004C1000002C1000000C10000FEC0000069
:10009000FCC00000FAC00000F8C00000F6C000007C
:1000A000F4C00000F2C00000F0C00000EEC000008C
:1000B000ECC00000EAC00000E8C00000E6C000009C
:1000C000E4C00000E2C00000E0C00000DEC00000AC
:1000D000DCC00000DAC00000D8C00000D6C00000BC
:1000E000D4C000008401870176017A018001BE013D
:1000F0008B018F01950199019D01A301A701AB011E
:10010000BE01B101B501B9010000210024002700A2
:100110002A002D0030003300010100000401070116
:100120000A0100002200250028002B002E003100CB
:10013000340002010000050108010B01000020004D
:100140002300260029002C002F00320000010000AF
:10015000030106010901050505050705080808084A
:10016000020202020A0A080804040404010101014F
:10017000010101010303030303030303040707074A
:100180000C0C0C0C0C0C0C0C0202020206060606EF
:10019000060606060B0B0B0B0B0B0B0B01021020BC
:1001A00020080810204010204080020102010804AD
:1001B0000201010204081020408080402010080441
:1001C000020180040201804020100804020108049A
:1001D00002010102040810204080010204081020DE
:1001E000408000000A0B02090C0D0E0807030401F1
:1001F00000000000000000000000000000000000FF
:1002000000000000000000000000000000001211CB
:1002100010000000000000000000000000000000CE
:100220000000000000000000230611241FBECFEFD5
:10023000D1E2DEBFCDBF00E00CBF12E0A0E0B2E033
:10024000ECE8F3E100E00BBF02C007900D92AC3682
:10025000B107D9F723E0ACE6B2E001C01D92AD3999
:10026000B207E1F711E0C5E1D1E000E006C0219757
:100270000109802FFE010E94B809C431D10780E036
:100280000807A9F799D50C94C409BACE96E0899FBE
:10029000D0011124AA5EBC4F90967C936E935F9719
:1002A00091E091969C93919790918203E0918303C2
:1002B000F0918403992339F0309751F0811108C0EF
:1002C0008091320304C0309719F05C968C91199498
:1002D000089590E0FC013197E231F10508F04EC03D
:1002E0008827EE58FF4F8F4F0C94B80980918000FB
:1002F0008F7703C0809180008F7D80938000089568
:1003000080918000877FF9CF84B58F7702C084B554
:100310008F7D84BD08958091B0008F7703C0809158
:10032000B0008F7D8093B0000895809190008F770A
:1003300007C0809190008F7D03C080919000877FDF
:100340008093900008958091A0008F7707C08091DE
:10035000A0008F7D03C08091A000877F8093A000C4
:100360000895809120018F7707C0809120018F7DB3
:1003700003C080912001877F809320010895CF934F
:10038000DF93282F30E0F901EE51FE4F8491F901FF
:10039000E456FE4FD491F901EA5AFE4FC491CC23A2
:1003A00089F0811196DFEC2FF0E0EE0FFF1FE45C87
:1003B000FE4FA591B491EC91ED2381E090E021F402
:1003C00080E002C080E090E0DF91CF9108951F931C
:1003D000CF93DF93282F30E0F901EE51FE4F849147
:1003E000F901E456FE4FD491F901EA5AFE4FC49147
:1003F000CC23B9F0162F81116CDFEC2FF0E0EE0F5B
:10040000FF1FEE5DFE4FA591B4919FB7F8941111B7
:1004100004C08C91D095D82302C0EC91DE2BDC93E4
:100420009FBFDF91CF911F910895CF93DF9390E00D
:10043000FC01E456FE4F2491FC01EA5AFE4F8491E0
:10044000882361F190E0880F991FFC01E85FFE4F5F
:10045000C591D491FC01EE5DFE4FA591B49161115F
:1004600009C09FB7F8948881209582238883EC91F6
:100470002E230BC0623061F49FB7F8948881322F2D
:10048000309583238883EC912E2B2C939FBF06C03D
:100490008FB7F894E8812E2B28838FBFDF91CF91FF
:1004A00008953FB7F8948091750290917602A091DB
:1004B0007702B091780226B5A89B05C02F3F19F0AE
:1004C0000196A11DB11D3FBFBA2FA92F982F8827D4
:1004D000820F911DA11DB11DBC01CD0142E0660F2F
:1004E000771F881F991F4A95D1F708952FB7F89461
:1004F0006091710270917202809173029091740206
:100500002FBF08950F931F93CF93DF93C82FD62F3C
:1005100086E0C89FF0011124EA5EFC4F11A2878D8E
:1005200090A181309105C9F040F08230910591F1A0
:100530000397D1F560E070E031C06623A9F161E076
:1005400070E08C2FA3DED2DF60936E0370936F0395
:10055000809370039093710327C0C8DF00916E03EE
:1005600010916F032091700330917103AB01BC01B6
:10057000401B510B620B730B8091800390918103A0
:10058000A0E0B0E084179507A607B70718F462E06B
:1005900070E004C0D11108C063E070E08C2FDF91DF
:1005A000CF911F910F9172CEDF91CF911F910F913B
:1005B0000895862F642F39CF862F642F08CF862F7A
:1005C000DECECF92DF92EF92FF920F931F93CF93E5
:1005D000DF936C017A018B01C0E0D0E0CE15DF051E
:1005E00081F0D8016D918D01D601ED91FC910190C2
:1005F000F081E02DC6011995892B11F02196EECFDF
:100600007E01C701DF91CF911F910F91FF90EF9075
:10061000DF90CF900895FC01538D448D252F30E05D
:10062000842F90E0821B930B541710F0CF960895FF
:1006300001970895FC01918D828D981761F0828D4C
:10064000DF01A80FB11D5D968C91928D9F5F9F7306
:10065000928F90E008958FEF9FEF0895FC01918DA8
:10066000828D981731F0828DE80FF11D858D90E015
:1006700008958FEF9FEF0895FC01918D228D892FB2
:1006800090E0805C9F4F821B91098F73992708959A
:1006900089E792E0F1DF21E0892B09F420E0822F45
:1006A0000895FC01848DDF01A80FB11DA35ABF4F2F
:1006B0002C91848D90E001968F739927848FA68961
:1006C000B7892C93A089B1898C91837080648C93B5
:1006D000938D848D981306C00288F389E02D808164
:1006E0008F7D80830895EF92FF920F931F93CF9396
:1006F000DF93EC0181E0888F9B8D8C8D981305C072
:10070000E889F989808185FD25C0F62E0B8D10E0E2
:100710000F5F1F4F0F731127E02E8C8DE8120BC057
:100720000FB607FCFACFE889F989808185FFF5CFFC
:10073000CE01B7DFF2CF8B8DFE01E80FF11DE35A3A
:10074000FF4FF0829FB7F8940B8FEA89FB89808175
:1007500080620AC09FB7F894EE89FF896083E889B8
:10076000F98980818370806480839FBF81E090E0FD
:10077000DF91CF911F910F91FF90EF900895CF934C
:10078000DF93EC01888D8823C1F0EA89FB898081A1
:1007900085FD05C0A889B9898C9186FD0EC00FB66C
:1007A00007FCF5CF808185FFF2CFA889B9898C91AC
:1007B00085FFEDCFCE0175DFE8CFDF91CF910895B2
:1007C00080E090E0892B19F063DF811125C080E083
:1007D00090E0892B41F080E090E0892B21F00E948D
:1007E000000081111CC080E090E0892B41F080E086
:1007F00090E0892B21F00E940000811113C080E05D
:1008000090E0892BA1F080E090E0892B81F00E949C
:10081000000081110AC008950E940000D8CF0E94F4
:100820000000E1CF0E940000EACF0C940000089580
:10083000CF93DF93EC0160E08E81C9DD61E08E81B2
:10084000C6DD60E08E81C3DD8BE891E00197F1F7B2
:10085000DF91CF910895CF92DF92EF92FF920F93A5
:100860001F93CF93DF936C017C0187E0E80EF11CAE
:10087000C0E0D0E0062F10E0B8010C2E02C0759544
:1008800067950A94E2F76170F70181917F019FDD1E
:100890002196C430D10581F7C601DF91CF911F9118
:1008A0000F91FF90EF90DF90CF90C2CFCF92DF9269
:1008B000EF92FF920F931F93CF93DF93EC01F62EED
:1008C000642F8C8184DD8D818F3F11F060E07FDDAE
:1008D0008F850F2D10E084FF23C06E0187E0C80EC6
:1008E000D11CE12CF12CB8010E2C02C07595679536
:1008F0000A94E2F76170F60181916F0168DDFFEF04
:10090000EF1AFF0A88E0E816F10469F7CE01DF91DB
:10091000CF911F910F91FF90EF90DF90CF9088CFF4
:10092000B80184E0759567958A95E1F7CE0193DF6C
:100930006F2DCE01DF91CF911F910F91FF90EF901E
:10094000DF90CF9088CF40E0682F85E893E0AECF6E
:10095000CF93DF93623028F0909194039860909346
:100960009403609398031092990390E490939A03F0
:1009700080939B0390E0805C9F4F80939C0361E099
:100980008091890352DD80918A038F3F11F061E0ED
:100990004CDD61E080918B0348DDC5E8D3E09E012A
:1009A000255833408091940384FD03C084E090E097
:1009B00002C088E090E021962817390724F461E00E
:1009C0008E8133DDECCF8BE39DE00197F1F760E0A2
:1009D00080918903FCDC60E080918B03F8DC8091DE
:1009E0008A038F3F11F060E0F2DC8091940384FD74
:1009F0001CC063E085E893E02EDFCBE4D6E4CE01B3
:100A00000197F1F763E085E893E025DF2197F1F79F
:100A100063E085E893E01FDF83E592E00197F1F75B
:100A200062E085E893E017DF12C080628CDF8BE420
:100A300096E40197F1F780919403806284DF83E567
:100A400092E00197F1F78091940380627CDF8091BE
:100A50009403806278DF84E0809395038CE073DFF9
:100A600081E071DF8BE39FE10197F1F782E08093F2
:100A7000960386E0DF91CF9166CF643008F063E0A3
:100A800090919803691710F06FEF690FE62FF0E06F
:100A9000EB57FC4F9489890F806855CF41E006DF02
:100AA00081E090E008950F931F93CF93DF938B0124
:100AB000877028E0829FC0011124806444DFE80130
:100AC000085F1F4F699185E893E0E8DFC017D10701
:100AD000C9F7DF91CF911F910F910895089580E09C
:100AE00090E0089541E050E06AE672E085E893E026
:100AF00068CD46D41F920F920FB60F9211242F93F8
:100B00003F938F939F93AF93BF9380917102909186
:100B10007202A0917302B09174023091700223E0CE
:100B2000230F2D3720F40196A11DB11D05C026E825
:100B3000230F0296A11DB11D2093700280937102B4
:100B400090937202A0937302B09374028091750225
:100B500090917602A0917702B09178020196A11D42
:100B6000B11D8093750290937602A0937702B093A3
:100B70007802BF91AF919F918F913F912F910F90EC
:100B80000FBE0F901F9018951F920F920FB60F92E5
:100B900011240BB60F922F933F934F935F936F9354
:100BA0007F938F939F93AF93BF93EF93FF9389E7C7
:100BB00092E077DDFF91EF91BF91AF919F918F917F
:100BC0007F916F915F914F913F912F910F900BBE4D
:100BD0000F900FBE0F901F9018951F920F920FB697
:100BE0000F9211240BB60F922F938F939F93EF9335
:100BF000FF93E0918902F0918A028081E0918F0257
:100C0000F091900282FD12C09081809192028F5FDC
:100C10008F7320919302821751F0E0919202F0E0DD
:100C2000E758FD4F958F8093920201C08081FF911C
:100C3000EF919F918F912F910F900BBE0F900FBE50
:100C40000F901F90189510927C0210927B0288EEF4
:100C500093E0A0E0B0E080937D0290937E02A093A9
:100C60007F02B093800286E492E090937A028093B0
:100C7000790285EC90E0909386028093850284EC63
:100C800090E0909388028093870280EC90E09093AC
:100C90008A028093890281EC90E090938C02809389
:100CA0008B0282EC90E090938E0280938D0286EC12
:100CB00090E09093900280938F0210929202109293
:100CC000930210929402109295021092880310924F
:100CD000870382E692E090938603809385038CE1FC
:100CE000809389038FEF80938A038EE180938B0337
:100CF00080E280938C0382E280938D0384E2809370
:100D00008E0386E280938F031092900310929103DA
:100D100010929203109293031092940361E080E189
:100D200017DE1092180310921C0310921B031092EE
:100D30001D0388E592E09093170380931603E6E184
:100D4000F3E0148E10A2178E11A2369683E0E235DE
:100D5000F807B9F78EE292E09093790380937803D5
:100D60008AE292E090937B0380937A0384E08093FD
:100D70007C0380937D0382E392E0909377038093DA
:100D800076038AE090E090937F0380937E0384EF64
:100D900091E09093810380938003109284031092DA
:100DA00083031092720310927303109274031092D3
:100DB0007503109282030895CF93DF93CDB7DEB70A
:100DC000A1970FB6F894DEBF0FBECDBF789484B55F
:100DD000826084BD84B5816084BD85B5826085BD37
:100DE00085B5816085BD80916E00816080936E00C5
:100DF00010928100809181008260809381008091B7
:100E00008100816080938100809180008160809367
:100E100080008091B10084608093B1008091B00027
:100E200081608093B00080919100826080939100F6
:100E30008091910081608093910080919000816009
:100E4000809390008091A10082608093A1008091A6
:100E5000A10081608093A1008091A00081608093B7
:100E6000A000809121018260809321018091210165
:100E70008160809321018091200181608093200115
:100E800080917A00846080937A0080917A008260F9
:100E900080937A0080917A00816080937A008091BB
:100EA0007A00806880937A001092C100E0918902F4
:100EB000F0918A0282E08083E0918502F0918602BF
:100EC0001082E0918702F09188028FEC808310926B
:100ED0009102E0918D02F0918E0286E08083E09194
:100EE0008B02F0918C02808180618083E0918B0283
:100EF000F0918C02808188608083E0918B02F09178
:100F00008C02808180688083E0918B02F0918C025A
:100F100080818F7D808364E084E11ADD60E272E08D
:100F200080E0C1DD68E172E081E0BDDD60E172E09A
:100F300082E0B9DD68E072E083E0B5DD60E072E098
:100F400084E0B1DD63E082E098DD64E085E893E071
:100F5000A5DD66E0262E7AE0C72ED12CE12CF12CFF
:100F600021E020938203C2DA00917203109173038F
:100F70002091740330917503AB01BC01401B510BF0
:100F8000620B730B80917E0390917F03A0E0B0E031
:100F900084179507A607B707D0F410E025C0B12C39
:100FA000F80181A1882311F0BB24B3940A5F1F4F7D
:100FB000F3E002351F07A1F799DA6093720370938B
:100FC00073038093740390937503B110C2C01092A1
:100FD0008203CBC0E0917803F0917903E10FF11D1A
:100FE00062E0808122DA1F5F80917C03181790F302
:100FF000712C35C0A62CB12CE0917803F0917903C7
:10100000EA0DFB1D8081BBD995012C5F3F4F892BD9
:1010100009F04EC0C901880F991FFC01EA5EFC4F20
:101020008081918184299529918380836394809123
:101030007C036816F8F2E0917A03F0917B03E00FED
:10104000F11F61E08081C3D980917A0390917B0385
:10105000FC01E00FF11F60E08081E7D9739480917B
:101060007D03781680F5072D10E0E0917A03F0916A
:101070007B03E00FF11F61E08081D7D9E0917A0313
:10108000F0917B03E00FF11F60E08081A0D9812CFB
:10109000912C54018394072C04C0880C991CAA1C21
:1010A000BB1C0A94D2F7240180949094612CBFCF8A
:1010B000C901880F991FFC01EA5EFC4F8081918174
:1010C00088219921B1CF06E113E0F801878D90A125
:1010D000892B31F4148E8FEF9FEF968F858F11A29D
:1010E000369693E0E235F90789F7B12C80917C03BD
:1010F000B81608F054CFA12C8B2C912CC401880F6A
:10110000991FFC01E25EFC4F4F0120917D03A21666
:10111000F0F4F401408151810A2C02C056954795A4
:101120000A94E2F7642F6170B29E900111242A0D97
:10113000311DE6E1F3E080E0A58DB68D2A173B076F
:1011400009F4EBC08F5F36968A30B1F7CAC0B3940A
:10115000CDCF80913703882309F439CF80913503AF
:1011600090913603019709F032CF60E080E085DC92
:10117000BDD99B01AC0119A28E010F5D1F4FCA01A1
:10118000B901A7019601D2D0605DF80162938F0189
:10119000211531054105510591F7309759F001901E
:1011A0000020E9F73197AF01401B510BB80185E8EA
:1011B00093E007DA9BD900916C0210916D022091A7
:1011C0006E0230916F0208511C4F2F4F3F4F061790
:1011D00017072807390708F05EC088D960936C02AA
:1011E00070936D0280936E0290936F0200912802BB
:1011F00010912902C8010697049708F03EC061E0EB
:10120000802F3BDC60E085E893E048DC33243394B6
:10121000300E61E0832D31DC61E085E893E03EDC57
:1012200040D92B013C0188EE882E83E0982EA12C1A
:10123000B12C37D9DC01CB0184199509A609B7096E
:10124000883E9340A105B105A0F3F1E08F1A910803
:10125000A108B10828EE420E23E0521E611C711C49
:1012600081149104A104B10421F761E0802F05DC11
:1012700039DC61E0832D01DC35DC8091280290911E
:10128000290202968930910514F086E090E090934F
:101290002902809328022AD961327F4B810591056A
:1012A000F0F024D960936C0270936D0280936E020B
:1012B00090936F0261E086E0E0DB60E085E893E018
:1012C000EDDB61E087E0D9DB61E085E893E0E6DB18
:1012D00060E087E0D2DB63E085E893E0DFDB70DA93
:1012E0003FCE40FF1BC0E6E1F3E080E090E0448D9C
:1012F000411116C0E0917603F0917703E20FF31FDE
:101300004081289EF001299EF00D1124EA5EFC4FD9
:10131000448F368F258F10A2178EF4D8A394F5CE64
:10132000019636968A30910511F7F8CFA1E21A2E70
:10133000AA1BBB1BFD010DC0AA1FBB1FEE1FFF1F79
:10134000A217B307E407F50720F0A21BB30BE40BC9
:10135000F50B661F771F881F991F1A9469F7609510
:101360007095809590959B01AC01BD01CF010895CA
:10137000EE0FFF1F881F8BBF0790F691E02D199489
:0C13800081E090E0F89400C0F894FFCFEA
:10138C0000001B1F0E040000000E0204080E0000DB
:10139C00020911120800040E101008080810081891
:1013AC000D0F18151208121D06002D2B2927353389
:1013BC00312F3132334134353642373839432A30C4
:1013CC002344000000007303E1020B03BF033C0342
:1013DC001A032E0300000000D902DC02DF02000019
:0C13EC0000004E05E1026F056E052000B8
:020000023000CC
:10E000000D9489F10D94B2F10D94B2F10D94B2F129
:10E010000D94B2F10D94B2F10D94B2F10D94B2F1F0
:10E020000D94B2F10D94B2F10D94B2F10D94B2F1E0
:10E030000D94B2F10D94B2F10D94B2F10D94B2F1D0
:10E040000D94B2F10D94B2F10D94B2F10D94B2F1C0
:10E050000D94B2F10D94B2F10D94B2F10D94B2F1B0
:10E060000D94B2F10D94B2F10D94B2F10D94B2F1A0
:10E070000D94B2F10D94B2F10D94B2F10D94B2F190
:10E080000D94B2F10D94B2F10D94B2F10D94B2F180
:10E090000D94B2F10D94B2F10D94B2F10D94B2F170
:10E0A0000D94B2F10D94B2F10D94B2F10D94B2F160
:10E0B0000D94B2F10D94B2F10D94B2F10D94B2F150
:10E0C0000D94B2F10D94B2F10D94B2F10D94B2F140
:10E0D0000D94B2F10D94B2F10D94B2F10D94B2F130
:10E0E0000D94B2F141546D656761323536300041AF
:10E0F000726475696E6F206578706C6F72657220DE
:10E1000073746B3530305632206279204D4C530099
:10E11000426F6F746C6F616465723E004875683F52
:10E1200000436F6D70696C6564206F6E203D200048
:10E130004350552054797065202020203D20005FF9
:10E140005F4156525F415243485F5F3D2000415658
:10E1500052204C696243205665723D20004743437C
:10E160002056657273696F6E203D20004350552024
:10E1700049442020202020203D20004C6F7720663D
:10E18000757365202020203D20004869676820665F
:10E190007573652020203D200045787420667573D6
:10E1A00065202020203D20004C6F636B2066757336
:10E1B000652020203D20004D617220203720323024
:10E1C000313300312E362E3800342E332E350056A2
:10E1D00023202020414444522020206F7020636F70
:10E1E00064652020202020696E73747275637469E1
:10E1F0006F6E2061646472202020496E74657272B3
:10E20000757074006E6F20766563746F7200726A49
:10E210006D702020006A6D70200057686174207056
:10E220006F72743A00506F7274206E6F7420737541
:10E2300070706F72746564004D7573742062652030
:10E2400061206C6574746572002000577269747483
:10E25000696E672045450052656164696E672045B7
:10E26000450045452065727220636E743D00504F35
:10E27000525400303D5A65726F2061646472003FF1
:10E280003D43505520737461747300403D454550C3
:10E29000524F4D207465737400423D426C696E6B41
:10E2A000204C454400453D44756D70204545505215
:10E2B0004F4D00463D44756D7020464C415348001B
:10E2C000483D48656C70004C3D4C69737420492F83
:10E2D0004F20506F72747300513D51756974005234
:10E2E0003D44756D702052414D00563D73686F7707
:10E2F00020696E7465727275707420566563746FF0
:10E30000727300593D506F727420626C696E6B00BD
:10E310002A0011241FBECFEFD1E2DEBFCDBF01E046
:10E320000CBF12E0A0E0B2E0EEE1FDEF03E00BBFB6
:10E3300002C007900D92A030B107D9F712E0A0E01B
:10E34000B2E001C01D92AE30B107E1F70F9460F367
:10E350000D948DFE01E20EBF0FEF0DBF11241FBE05
:10E360000D9460F30D9400F020E030E040ED57E0B4
:10E3700005C0FA013197F1F72F5F3F4F2817390792
:10E38000C0F308959C01260F311DC901A0E0B0E043
:10E390002F5F3F4FABBFFC018791882361F08093D3
:10E3A000C6008091C00086FFFCCF8091C0008064D1
:10E3B0008093C000EACF08958DE08093C6008091DD
:10E3C000C00086FFFCCF8091C00080648093C000B5
:10E3D0008AE08093C6008091C00086FFFCCF8091C8
:10E3E000C00080648093C00008950F94C2F10F9420
:10E3F000DCF10895FC019081992359F09093C600B7
:10E400008091C00086FFFCCF8091C0008064809323
:10E41000C0003196992379F70895282F982F929567
:10E420009F70892F805D8A3308F0895F8093C600D2
:10E430008091C00086FFFCCF8091C00080648093F3
:10E44000C000822F8F70982F905D9A3308F0995FEB
:10E450009093C6008091C00086FFFCCF8091C000E1
:10E4600080648093C00008959C01FB01853691056E
:10E470001CF46330710594F0C90164E670E00F94F8
:10E480002EFE605D7F4F6093C6008091C00086FFC6
:10E49000FCCF8091C00080648093C0002B30310598
:10E4A00014F43297B4F0C90164E670E00F942EFEC4
:10E4B0006AE070E00F942EFE605D7F4F6093C600AF
:10E4C0008091C00086FFFCCF8091C0008064809363
:10E4D000C000C9016AE070E00F942EFEC0968093E0
:10E4E000C6008091C00086FFFCCF8091C000806490
:10E4F0008093C00008951F93182F8EE692EE60E07F
:10E500000F94C2F11093C6008091C00086FFFCCF2B
:10E510008091C00080648093C0000F94DCF11F9153
:10E5200008952F923F924F925F926F927F928F92B7
:10E530009F92AF92BF92CF92DF92EF92FF920F9392
:10E540001F93DF93CF93CDB7DEB762970FB6F894E2
:10E55000DEBF0FBECDBF382E622ECA01DB015C01CB
:10E560006D01772420E2222E2E010894411C511CBB
:10E570008BC081E0A81680E0B80681E0C80680E084
:10E58000D80628F0C601AA27BB270F940DF2BB2797
:10E59000AD2D9C2D8B2D0F940DF28A2D0F940DF225
:10E5A0002092C6008091C00086FFFCCF8091C00001
:10E5B00080648093C0009DE29093C6008091C0006B
:10E5C00086FFFCCF8091C00080648093C0002092C1
:10E5D000C6008091C00086FFFCCF8091C00080649F
:10E5E0008093C00019828601750188249924A1E0D6
:10E5F0003A1651F03A1620F0B2E03B1661F409C029
:10E600000BBFF701779007C0C7010F9477FE782EF4
:10E6100002C0F7017080872D0F940DF22092C60082
:10E620008091C00086FFFCCF8091C0008064809301
:10E63000C000872D8052F401EF70F0708F3520F408
:10E64000E40DF51D708204C0E40DF51D8EE280839B
:10E650000894E11CF11C011D111D0894811C911CE2
:10E6600090E18916910409F0C2CF80E190E0A0E02A
:10E67000B0E0A80EB91ECA1EDB1E198AC2010F9493
:10E68000FAF10F94DCF16A94662009F072CF629679
:10E690000FB6F894DEBF0FBECDBFCF91DF911F91B3
:10E6A0000F91FF90EF90DF90CF90BF90AF909F9031
:10E6B0008F907F906F905F904F903F902F90089534
:10E6C0002F923F924F925F926F927F928F929F9282
:10E6D000AF92BF92CF92DF92EF92FF920F931F9370
:10E6E000DF93CF93CDB7DEB7CD53D1400FB6F894BB
:10E6F000DEBF0FBECDBF01E20EBF0FEF0DBF94B75F
:10E70000F894A89514BE80916000886180936000A1
:10E7100010926000789493FF05C0E0910002F091A0
:10E7200001021995279A2F9A8091C00082608093E8
:10E73000C00080E18093C40088E18093C1000000A4
:10E74000EE24FF24870144E0A42EB12CCC24DD2448
:10E7500024C0C5010197F1F70894E11CF11C011DCB
:10E76000111D21E2E2162EE4F20620E0020720E06D
:10E77000120718F031E0C32ED12CC801B70127ECE5
:10E780003BE140E050E00F9441FE611571058105C9
:10E79000910519F485B1805885B98091C00087FD35
:10E7A00003C0C114D104A9F2A6014F5F5F4FC25E3E
:10E7B000DE4F59834883CE51D140C25EDE4F8881FF
:10E7C0009981CE51D140019711F00D9410FEC05D9A
:10E7D000DE4F19821882C053D14060E0C15DDE4F28
:10E7E0001882CF52D14088249924C35DDE4F19820C
:10E7F0001882CD52D140C05EDE4F188219821A8233
:10E800001B82C052D140CE5CDE4F188219821A8220
:10E810001B82C253D140EE24FF2487010BBFF701B6
:10E8200007911691C45CDE4F19830883CC53D14005
:10E830000D940BFEC25EDE4F28813981CE51D1404E
:10E840002130310509F52091C600C25EDE4F1982E4
:10E850001882CE51D14022C02F5F3F4F4F4F5F4FA4
:10E86000213082E138078AE7480780E0580780F0C6
:10E87000C45CDE4FE881F981CC53D140EF5FFF4F9C
:10E8800019F0EE27FF27099420E030E040E050E047
:10E890008091C00087FFE0CF2091C600C35DDE4FAE
:10E8A00048815981CD52D1404F5F5F4FC35DDE4FEC
:10E8B00059834883CD52D140213209F063C64A3092
:10E8C000510508F05FC60894811C911C53E0851621
:10E8D000910409F059C600E010E018C081E280936D
:10E8E000C6008091C00086FFFCCF8091C00080648C
:10E8F0008093C0002F5F3F4F2931310579F70F9486
:10E90000DCF10F5F1F4F0530110519F020E030E0FA
:10E91000E5CF10920A0210920B0210920C02109294
:10E920000D02109206021092070210920802109235
:10E930000902109202021092030210920402109235
:10E9400005028FEE90EE60E00F94F5F180E191EE1C
:10E9500060E00F94C2F18091C00087FFFCCF9091DE
:10E96000C600903608F09F759032B8F09093C600BC
:10E970008091C00086FFFCCF8091C00080648093AE
:10E98000C000A0E2A093C6008091C00086FFFCCF2B
:10E990008091C00080648093C000983409F4D7C18E
:10E9A0009934B8F4923409F459C1933458F490333B
:10E9B00019F1903308F4E3C59F33A1F1903409F0C5
:10E9C000DEC5BDC0953409F470C1963409F0D7C5D1
:10E9D00098C1923509F42BC2933538F49C3409F46C
:10E9E000F5C1913509F0CBC518C2963509F445C279
:10E9F000993509F0C4C567C483E792EE62E00F94CD
:10EA0000F5F110920602109207021092080210927D
:10EA1000090210920A0210920B0210920C0210923C
:10EA20000D0213C18FE792EE62E00F94F5F18FEEC5
:10EA300090EE60E00F94F5F181E291EE60E00F94CA
:10EA4000C2F187EB91EE60E00F94F5F180E391EE77
:10EA500060E00F94C2F184EE90EE60E00F94F5F167
:10EA60008FE391EE60E00F94C2F186E090E061E008
:10EA700070E00F9434F20F94DCF18DE591EE60E0DC
:10EA80000F94C2F189EC91EE60E00F94F5F18EE401
:10EA900091EE60E00F94C2F183EC91EE60E00F9490
:10EAA000F5F18CE691EE60E00F94C2F18EE10F94E7
:10EAB0000DF288E90F940DF281E00F940DF20F949E
:10EAC000DCF18BE791EE60E00F94C2F119E0E0E039
:10EAD000F0E010935700E4918E2F0F940DF20F94F5
:10EAE000DCF18AE891EE60E00F94C2F1E3E0F0E03F
:10EAF00010935700E4918E2F0F940DF20F94DCF1D8
:10EB000089E991EE60E00F94C2F1E2E0F0E0109349
:10EB10005700E4918E2F0F940DF20F94DCF188EAE8
:10EB200091EE60E00F94C2F1E1E0F0E01093570045
:10EB30001491812F0F940DF20F94DCF107CF8BE825
:10EB400092EE62E00F94F5F18BE492EE60E00F94A8
:10EB5000F5F10F94DCF100E010E019C0C8016F2D51
:10EB60000F947FFEFF2031F489E492EE60E00F9471
:10EB7000C2F10BC0F092C6008091C00086FFFCCFAE
:10EB80008091C00080648093C0000F5F1F4FC80158
:10EB900081519F41A0E0B0E0ABBFFC01F790BAE229
:10EBA000FB1621F0E2E000301E07C1F60F94DCF105
:10EBB0000F94DCF187E592EE60E00F94F5F10F948D
:10EBC000DCF1CC24DD2400E010E01EC0C8010F946D
:10EBD00077FEF82E882331F489E492EE60E00F94FA
:10EBE000C2F10BC08093C6008091C00086FFFCCFAD
:10EBF0008091C00080648093C000FE1419F00894D6
:10EC0000C11CD11C0F5F1F4FC80181519F41A0E063
:10EC1000B0E0ABBFFC01E790FAE2EF1621F022E092
:10EC20000030120799F60F94DCF10F94DCF182E6C4
:10EC300092EE60E00F94C2F1C60161E070E00F94C3
:10EC400034F20F94DCF10F94DCF110920202109276
:10EC50000302109204021092050278CE89E992EE26
:10EC600062E00F94F5F1279A2F9A16C02F9880E052
:10EC700090E0E0EDF7E03197F1F7019684369105E9
:10EC8000C1F72F9A80E090E0E0EDF7E03197F1F7DF
:10EC9000019684369105C1F78091C00087FFE6CFC9
:10ECA0008091C00087FFFCCF64C485EA92EE62E0E9
:10ECB0000F94F5F140910202509103026091040219
:10ECC0007091050281E020E10F9491F2809102029F
:10ECD00090910302A0910402B091050280509F4FD1
:10ECE000AF4FBF4F8093020290930302A0930402A0
:10ECF000B093050280509041A040B04008F426CE69
:10ED0000A4CF83EB92EE62E00F94F5F140910602FE
:10ED100050910702609108027091090280E020E1A1
:10ED20000F9491F28091060290910702A09108023F
:10ED3000B091090280509F4FAF4FBF4F80930602A2
:10ED400090930702A0930802B0930902FFCD80ECD4
:10ED500092EE62E00F94F5F183E792EE60E00F949B
:10ED6000F5F18FE792EE60E00F94F5F18BE892EE0B
:10ED700060E00F94F5F189E992EE60E00F94F5F10F
:10ED800085EA92EE60E00F94F5F183EB92EE60E09D
:10ED90000F94F5F180EC92EE60E00F94F5F187ECC2
:10EDA00092EE60E00F94F5F188ED92EE60E00F9442
:10EDB000F5F18FED92EE60E00F94F5F18AEE92EEB0
:10EDC00060E00F94F5F183E093EEBDCD87EC92EE19
:10EDD00062E00F94F5F181E40F947BF282E40F94EA
:10EDE0007BF283E40F947BF284E40F947BF285E45E
:10EDF0000F947BF286E40F947BF287E40F947BF20E
:10EE000088E40F947BF28AE40F947BF28BE40F94F6
:10EE10007BF28CE40F947BF299CD88ED92EE62E068
:10EE20000F94F5F1772473948824992409C48FED05
:10EE300092EE62E00F94F5F140910A0250910B02BC
:10EE400060910C0270910D0282E020E10F9491F22A
:10EE500080910A0290910B02A0910C02B0910D02D8
:10EE600080509F4FAF4FBF4F80930A0290930B0289
:10EE7000A0930C02B0930D0269CD8AEE92EE62E08F
:10EE80000F94F5F184EE90EE60E00F94F5F18FECC5
:10EE900091EE60E00F94F5F1662477244301CC5D98
:10EEA000DE4F19821882C452D140D401C301B695F5
:10EEB000A79597958795CA5DDE4F88839983AA8326
:10EEC000BB83C652D140CC5DDE4FA881B981C4520C
:10EED000D1401196CC5DDE4FB983A883C452D14096
:10EEE000CD0162E070E00F9434F2B0E2B093C6005E
:10EEF0008091C00086FFFCCF8091C0008064809329
:10EF0000C000EDE2E093C6008091C00086FFFCCF18
:10EF10008091C00080648093C000F0E2F093C6004E
:10EF20008091C00086FFFCCF8091C00080648093F8
:10EF3000C000CA5DDE4FE880F9800A811B81C6529D
:10EF4000D140BB27A12F902F8F2D0F940DF2CA5DBA
:10EF5000DE4F8881C652D1400F940DF2B0E2FB2EF5
:10EF6000F092C6008091C00086FFFCCF8091C00067
:10EF700080648093C0000DE30093C6008091C000C0
:10EF800086FFFCCF8091C00080648093C00010E2B7
:10EF90001093C6008091C00086FFFCCF8091C00016
:10EFA00080648093C0008BBEF3012791C65DDE4F65
:10EFB0002883CA52D140A22EBB24CC24DD2408943D
:10EFC000611C711C811C911C8BBEF3018791282E42
:10EFD0003324442455240894611C711C811C911C09
:10EFE0008BBEF3013791C55DDE4F3883CB52D140E4
:10EFF0000894611C711C811C911C8BBEF30147910C
:10F00000C45DDE4F4883CC52D140ADEFEA2EAFEF66
:10F01000FA2EAFEF0A2FAFEF1A2F6E0C7F1C801E57
:10F02000911E142D032DF22CEE24EA0CFB1C0C1D5A
:10F030001D1D0F940DF220E22093C6008091C000A8
:10F0400086FFFCCF8091C00080648093C000C65DC5
:10F05000DE4F8881CA52D1400F940DF230E23093D6
:10F06000C6008091C00086FFFCCF8091C000806404
:10F070008093C000C45DDE4F8881CC52D1400F9494
:10F080000DF240E24093C6008091C00086FFFCCFA5
:10F090008091C00080648093C000C55DDE4F888190
:10F0A000CB52D1400F940DF250E25093C6008091A4
:10F0B000C00086FFFCCF8091C00080648093C000B8
:10F0C0008FEFE8168FEFF80680E0080780E018075A
:10F0D00031F484E092EE60E00F94C2F1DFC0D80119
:10F0E000C7018070907CA070B0708050904CA040A0
:10F0F000B040D1F52FEF3FE340E050E0E222F322B1
:10F1000004231523CA5DDE4FA880B980CA80DB8046
:10F11000C652D140AE0CBF1CC01ED11EAA0CBB1CD7
:10F12000CC1CDD1C8EE092EE60E00F94C2F1BB2798
:10F13000A12F902F8F2D0F940DF28E2D0F940DF285
:10F1400030E23093C6008091C00086FFFCCF8091F2
:10F15000C00080648093C0004EE34093C60080915D
:10F16000C00086FFFCCF87C08EE09EEFA0E0B0E03D
:10F17000E822F9220A231B239CE0E91694E9F90608
:10F1800090E0090790E0190709F088C0C45DDE4FE0
:10F19000A881CC52D140EA2EFF2400E010E0102FCD
:10F1A0000F2DFE2CEE24C55DDE4FB881CB52D14031
:10F1B000EB0EF11C011D111DD601C501817090706F
:10F1C000A070B070DC0199278827E80EF91E0A1F8D
:10F1D0001B1F20EF30E040E050E0A222B322C42207
:10F1E000D52241E1AA0CBB1CCC1CDD1C4A95D1F7F1
:10F1F000EA0CFB1C0C1D1D1D81E090E0A0E0B0E0BE
:10F20000282239224A225B2235E1220C331C441C7D
:10F21000551C3A95D1F7E20CF31C041D151D57013E
:10F220006801AA0CBB1CCC1CDD1C85E192EE60E0E1
:10F230000F94C2F1C801AA27BB270F940DF2BB2778
:10F24000A12F902F8F2D0F940DF28E2D0F940DF274
:10F2500090E29093C6008091C00086FFFCCF809121
:10F26000C00080648093C000AEE3A093C60080918C
:10F27000C00086FFFCCF8091C00080648093C000F6
:10F28000C601AA27BB270F940DF2BB27AD2D9C2DDD
:10F290008B2D0F940DF28A2D0F940DF20F94DCF14B
:10F2A000CC5DDE4FE881F981C452D140F99709F471
:10F2B0004DCBF4E0EF2EF12C012D112D6E0C7F1CA7
:10F2C000801E911EF2CD83E093EE62E00F94F5F183
:10F2D0008AE192EE60E00F94C2F18091C00087FF56
:10F2E000FCCF1091C6001F751093C6008091C0001E
:10F2F00086FFFCCF8091C00080648093C0000F9493
:10F30000DCF1812F81548A3108F036C1163409F4BA
:10F3100095C0173490F4133409F44EC0143430F40B
:10F320001134F1F0123409F01DC130C0143409F465
:10F3300059C0153409F016C16BC01A3409F4C4C0A1
:10F340001B3438F4173409F48FC0183409F00AC19B
:10F35000A1C01B3409F4D2C01C3409F003C1E8C0B9
:10F360008FEF81B90DC082B1809582B980E090E0C5
:10F37000E0EDF7E03197F1F70196883C9105C1F790
:10F380008091C00087FFEFCF12B8EFC08FEF84B934
:10F390000DC085B1809585B980E090E0E0EDF7E0A3
:10F3A0003197F1F70196883C9105C1F78091C00033
:10F3B00087FFEFCF15B8D9C08FEF87B90DC088B1DF
:10F3C000809588B980E090E0E0EDF7E03197F1F7C3
:10F3D0000196883C9105C1F78091C00087FFEFCF6F
:10F3E00018B8C3C08FEF8AB90DC08BB180958BB9A7
:10F3F00080E090E0E0EDF7E03197F1F70196883C8E
:10F400009105C1F78091C00087FFEFCF1BB8ADC059
:10F410008FEF8DB90DC08EB180958EB980E090E0F0
:10F42000E0EDF7E03197F1F70196883C9105C1F7DF
:10F430008091C00087FFEFCF1EB897C08FEF80BBD1
:10F440000DC081B3809581BB80E090E0E0EDF7E0F6
:10F450003197F1F70196883C9105C1F78091C00082
:10F4600087FFEFCF11BA81C08FEF83BB0DC084B38C
:10F47000809584BB80E090E0E0EDF7E03197F1F714
:10F480000196883C9105C1F78091C00087FFEFCFBE
:10F4900014BA6BC08FEF809301010FC080910201FD
:10F4A00080958093020180E090E0E0EDF7E03197F5
:10F4B000F1F70196883C9105C1F78091C00087FF64
:10F4C000EDCF1092020151C08FEF809304010FC065
:10F4D0008091050180958093050180E090E0E0ED4A
:10F4E000F7E03197F1F70196883C9105C1F78091DB
:10F4F000C00087FFEDCF1092050137C08FEF8093DA
:10F5000007010FC08091080180958093080180E079
:10F5100090E0E0EDF7E03197F1F70196883C910536
:10F52000C1F78091C00087FFEDCF109208011DC088
:10F530008FEF80930A010FC080910B01809580931B
:10F540000B0180E090E0E0EDF7E03197F1F70196F4
:10F55000883C9105C1F78091C00087FFEDCF1092E4
:10F560000B0103C085E292EEEEC98091C00087FFD7
:10F57000FCCF8091C600EAC988E392EEE4C98CE131
:10F5800091EEE1C988249924933011F1943028F444
:10F59000913089F09230B8F408C0953061F195301F
:10F5A000F0F0963009F048C043C02B3109F042C951
:10F5B00091E06BE13FC96227C15DDE4F2883CF52E6
:10F5C000D14092E037C9B22FA0E0622793E032C960
:10F5D000822F90E0A82BB92B622794E02BC92E3004
:10F5E00009F039C3622795E0C05DDE4F19821882A9
:10F5F000C053D1401FC9E1E0F0E0EC0FFD1FC05D3A
:10F60000DE4F08811981C053D140E00FF11F2083E4
:10F610000F5F1F4FC05DDE4F19830883C053D14079
:10F6200062270A171B0709F005C9D80196E002C92D
:10F63000261709F010C303C0973009F0FBC87724E0
:10F640009981933109F412C19431C8F4963009F4C8
:10F65000D8C0973050F4923009F406C1933009F4C1
:10F660006DC0913009F059C253C0913109F477C08F
:10F67000923108F0BBC0903109F04FC2F5C098310B
:10F6800009F487C0993150F4953109F4EFC09531F0
:10F6900008F4C6C1963109F040C2C2C19A3109F4DA
:10F6A0006CC09A3108F491C09B3109F45BC09D3164
:10F6B00009F033C29D81903359F48F81882311F46E
:10F6C0009EE11CC0813011F091E018C098E916C08D
:10F6D000892F807591F0903539F4E0E0F0E089E011
:10F6E0008093570094910AC0983539F4E3E0F0E034
:10F6F00089E080935700949101C090E01A821B82A8
:10F700008D818C831D829E831F8227E030E009C299
:10F710001A8288E08B8381E48C8386E58D8382E581
:10F720008E8389E48F8383E5888780E589878FE5E9
:10F730008A8782E38B872BE030E0F3C18A818139AD
:10F7400041F0823941F0803911F48FE005C080E04A
:10F7500003C082E001C08AE01A828B8344C0772410
:10F76000739482C08D81882311F48EE12CC0813086
:10F7700011F081E028C088E926C01A82E1E0F0E0BB
:10F7800089E08093570084918B831C8224E030E0D1
:10F79000C8C18B81803589F48C81883039F4E2E0EE
:10F7A000F0E089E08093570084910DC0E0E0F0E044
:10F7B00089E080935700849106C0E3E0F0E089E09F
:10F7C0008093570084911A82DFCF8D81836C99E0FA
:10F7D000E1E0F0E0082E90935700E89507B600FCB2
:10F7E000FDCF1A821B8223E030E09BC180EC8A832C
:10F7F000CE5CDE4F188219821A821B82C253D1401E
:10F800008EC18A8190E0A0E0B0E0582F44273327D2
:10F8100022278B8190E0A0E0B0E0DC0199278827C7
:10F82000282B392B4A2B5B2B8D8190E0A0E0B0E098
:10F83000282B392B4A2B5B2B8C8190E0A0E0B0E089
:10F84000BA2FA92F982F8827282B392B4A2B5B2BCF
:10F85000220F331F441F551FC05EDE4F288339839C
:10F860004A835B83C052D1401A8259C13A81C95C34
:10F87000DE4F3883C753D140CA5CDE4F1882C6536F
:10F88000D1408B81C82EDD24CA5CDE4F488159816E
:10F89000C653D140C42AD52A933109F082C0CE5C28
:10F8A000DE4F88819981AA81BB81C253D1408050AB
:10F8B000904CA340B04030F583E0CE5CDE4FE88052
:10F8C000F9800A811B81C253D140F70100935B008C
:10F8D00080935700E89507B600FCFDCFCE5CDE4F65
:10F8E000088119812A813B81C253D14000501F4FAA
:10F8F0002F4F3F4FCE5CDE4F088319832A833B8313
:10F90000C253D140C05EDE4F488159816A817B81FC
:10F91000C052D140DE011B9631E08C9111962C91A2
:10F9200011971296C75CDE4F2883C953D140C85C3B
:10F93000DE4F1882C853D14090E0C85CDE4FE881AA
:10F94000F981C853D1408E2B9F2B0C01FA01609393
:10F950005B0030935700E89511244E5F5F4F6F4F67
:10F960007F4F0EEFE02E0FEFF02ECE0CDF1CC114F8
:10F97000D10499F685E0C05EDE4F088119812A81A5
:10F980003B81C052D140F80120935B008093570027
:10F99000E89507B600FCFDCF81E180935700E8951C
:10F9A00035C0C05EDE4F88819981AA81BB81C0527B
:10F9B000D140B695A795979587957C018601ABE0D8
:10F9C000AA2EB12CAC0EBD1E0BC0D5016D915D01F0
:10F9D000C7010F947FFE0894E11CF11C01501040F8
:10F9E0000115110591F7A60160E070E0440F551F65
:10F9F000661F771FC05EDE4FE880F9800A811B8199
:10FA0000C052D1404E0D5F1D601F711F1A82C05E33
:10FA1000DE4F488359836A837B83C052D1407FC0C5
:10FA2000FA80C55CDE4FF882CB53D140C65CDE4F16
:10FA30001882CA53D1408B81C82EDD24C65CDE4FAC
:10FA400008811981CA53D140C02AD12A1A828981DA
:10FA5000BE016D5F7F4F843121F59601C05EDE4FA0
:10FA6000E880F9800A811B81C052D1400BBFF701A9
:10FA700087919691DB018C9311969C936E5F7F4FDB
:10FA8000D801C7010296A11DB11DC05EDE4F88835B
:10FA90009983AA83BB83C052D14022503040F1F6F3
:10FAA00036C0C05EDE4F288139814A815B81C052F9
:10FAB000D1400894C108D108760100E010E0089414
:10FAC000C11CD11C0894E11CF11C011D111DE20E8A
:10FAD000F31E041F151F21BDBB27A52F942F832FB5
:10FAE00082BD2F5F3F4F4F4F5F4FF89A80B5DB01CC
:10FAF0008D93BD012E153F054007510761F7C05E8C
:10FB0000DE4F288339834A835B83C052D1409601FC
:10FB10002D5F3F4FFB01108204C080EC8A8322E0FE
:10FB200030E08BE18093C6008091C00086FFFCCF5F
:10FB30008091C00080648093C000C15DDE4FF88179
:10FB4000CF52D140F093C6008091C00086FFFCCF19
:10FB50008091C00080648093C000432F3093C60022
:10FB60008091C00086FFFCCF8091C00080648093AC
:10FB7000C000922F2093C6008091C00086FFFCCF6A
:10FB80008091C00080648093C0008EE08093C600A6
:10FB90008091C00086FFFCCF8091C000806480937C
:10FBA000C00065E1C15DDE4FE880CF52D1406E25D7
:10FBB00069276427FE01319610C090819093C6009A
:10FBC0008091C00086FFFCCF31968091C000806498
:10FBD0008093C0006927215030402115310569F715
:10FBE0006093C6008091C00086FFFCCF8091C0006A
:10FBF00080648093C00085B1805885B9772081F4F6
:10FC0000C15DDE4F0881CF52D1400F5FC15DDE4F35
:10FC10000883CF52D14090E0A0E0B0E00D941AF4F8
:10FC200027982F9880E090E020ED37E0F901319798
:10FC3000F1F7019684369105C9F700008091C00064
:10FC40008D7F8093C00081E180935700E895EE2777
:10FC5000FF270994FFCF90E00D941AF497FB092E2B
:10FC600007260AD077FD04D02ED006D000201AF443
:10FC7000709561957F4F0895F6F7909581959F4F08
:10FC80000895A1E21A2EAA1BBB1BFD010DC0AA1FDD
:10FC9000BB1FEE1FFF1FA217B307E407F50720F0F5
:10FCA000A21BB30BE40BF50B661F771F881F991F70
:10FCB0001A9469F760957095809590959B01AC01B9
:10FCC000BD01CF010895AA1BBB1B51E107C0AA1FAC
:10FCD000BB1FA617B70710F0A61BB70B881F991FED
:10FCE0005A95A9F780959095BC01CD010895F99991
:10FCF000FECF92BD81BDF89A992780B50895262F31
:10FD0000F999FECF1FBA92BD81BD20BD0FB6F89400
:0EFD1000FA9AF99A0FBE01960895F894FFCF63
:040000033000E000E9
:00000001FF
